:100000000C9462000C94C7030C94A0030C948A0017
:100010000C948A000C948A000C948A000C948A0038
:100020000C948A000C948A000C948A000C948A0028
:100030000C948A000C948A000C948A000C948A0018
:100040000C9456030C948A000C9424030C94FE0226
:100050000C948A000C948A000C948A000C948A00F8
:100060000C948A000C948A000000000024002700F1
:100070002A0000000000250028002B0000000000DE
:1000800023002600290004040404040404040202DA
:100090000202020203030303030301020408102007
:1000A0004080010204081020010204081020000012
:1000B0000008000201000003040700000000000027
:1000C00000003B0611241FBECFEFD8E0DEBFCDBF3E
:1000D00012E0A0E0B1E0E4E7FDE002C005900D927F
:1000E000AE39B107D9F723E0AEE9B2E001C01D9205
:1000F000A635B207E1F710E0C2E6D0E004C02197D0
:10010000FE010E94B206C136D107C9F70E94EE0374
:100110000C94B8060C940000AF92BF92CF92DF927D
:10012000EF92FF920F931F93CF93DF936C017B01AC
:100130008B01040F151FEB015E01AE18BF08C0173D
:10014000D10759F06991D601ED91FC910190F081B0
:10015000E02DC6010995892B79F7C501DF91CF9173
:100160001F910F91FF90EF90DF90CF90BF90AF90D5
:100170000895FC01538D448D252F30E0842F90E0AD
:10018000821B930B541710F0CF9608950197089592
:10019000FC01918D828D981761F0A28DAE0FBF2F5B
:1001A000B11D5D968C91928D9F5F9F73928F90E0B1
:1001B00008958FEF9FEF0895FC01918D828D981720
:1001C00031F0828DE80FF11D858D90E008958FEF5D
:1001D0009FEF0895FC01918D228D892F90E0805C26
:1001E0009F4F821B91098F739927089589EB92E0A5
:1001F0000E94EA0021E0892B09F420E0822F089573
:1002000080E090E0892B29F00E94F60081110C9487
:1002100000000895FC01A48DA80FB92FB11DA35AA9
:10022000BF4F2C91848D90E001968F739927848F16
:10023000A689B7892C93A089B1898C918370806439
:100240008C93938D848D981306C00288F389E02DDA
:1002500080818F7D80830895EF92FF920F931F938B
:10026000CF93DF93EC0181E0888F9B8D8C8D981369
:100270001AC0E889F989808185FF15C09FB7F89475
:10028000EE89FF896083E889F989808183708064C1
:1002900080839FBF81E090E0DF91CF911F910F910C
:1002A000FF90EF900895F62E0B8D10E00F5F1F4F1B
:1002B0000F731127E02E8C8D8E110CC00FB607FC2A
:1002C000FACFE889F989808185FFF5CFCE010E94B8
:1002D0000A01F1CFEB8DEC0FFD2FF11DE35AFF4F1B
:1002E000F0829FB7F8940B8FEA89FB898081806246
:1002F000CFCFCF93DF93EC01888D8823B9F0AA8903
:10030000BB89E889F9898C9185FD03C0808186FDD0
:100310000DC00FB607FCF7CF8C9185FFF2CF80811F
:1003200085FFEDCFCE010E940A01E9CFDF91CF9189
:100330000895833081F028F4813099F08230A9F05B
:1003400008958730A9F08830C9F08430B1F48091E5
:1003500080008F7D03C0809180008F778093800024
:10036000089584B58F7784BD089584B58F7DFBCFC4
:100370008091B0008F778093B00008958091B00095
:100380008F7DF9CFCF93DF93E3EBF0E08491EFE93A
:10039000F0E0D491EBE8F0E0C491CC23A1F081111E
:1003A0000E949901EC2FF0E0EE0FFF1FE458FF4F81
:1003B000A591B491EC91ED2381E090E009F480E007
:1003C000DF91CF91089580E090E0FACF1F93CF9313
:1003D000DF93282F30E0F901E255FF4F8491F901B6
:1003E000E656FF4FD491F901EA57FF4FC491CC2351
:1003F000A9F0162F81110E949901EC2FF0E0EE0F69
:10040000FF1FEE58FF4FA591B4918FB7F894EC9170
:10041000111108C0D095DE23DC938FBFDF91CF91FF
:100420001F910895DE2BF8CFCF93DF9390E0FC016E
:10043000E656FF4F24918A579F4FFC0184918823F1
:10044000D1F090E0880F991FFC01E859FF4FA5916A
:10045000B491FC01EE58FF4FC591D49161110EC0CB
:100460009FB7F8948C91E22FE0958E238C9328818E
:10047000E223E8839FBFDF91CF9108958FB7F8946F
:10048000EC91E22BEC938FBFF6CF3FB7F8948091BD
:10049000A3029091A402A091A502B091A60226B554
:1004A000A89B05C02F3F19F00196A11DB11D3FBFAC
:1004B000BA2FA92F982F8827BC01CD01620F711D7B
:1004C000811D911D42E0660F771F881F991F4A9575
:1004D000D1F7089508950F931F932FB7F894809143
:1004E000AC029091AD02A091AE02B091AF022FBFCD
:1004F00040919E0250919F026091A0027091A102D2
:100500008C019D01041B150B260B370BB901A801AB
:10051000493C51056105710558F021E02093B8026E
:1005200080939E0290939F02A093A002B093A10299
:100530001F910F910895FC0101900020E9F7319778
:10054000AF01481B590BBC0189EB92E00C948C0065
:100550008F929F92AF92BF920F931F93CF93DF938F
:10056000CDB7DEB7A1970FB6F894DEBF0FBECDBFF3
:1005700019A2423008F44AE08E010F5D1F4F842E0D
:10058000912CB12CA12CA50194010E947C06E62F90
:10059000B901CA01EA30F4F4E05DD801EE938D01AF
:1005A000232B242B252B79F790E080E0109719F06E
:1005B000CD010E949B02A1960FB6F894DEBF0FBE3C
:1005C000CDBFDF91CF911F910F91BF90AF909F90C2
:1005D0008F900895E95CE1CFCF93DF93D0E0C0E046
:1005E000009719F00E949B02EC018AE191E00E94C1
:1005F0009B028C0F9D1FDF91CF9108951F920F9248
:100600000FB60F9211242F933F934F935F936F93E5
:100610007F938F939F93AF93BF93EF93FF9389EB58
:1006200092E00E940A01FF91EF91BF91AF919F91DB
:100630008F917F916F915F914F913F912F910F908B
:100640000FBE0F901F9018951F920F920FB60F922A
:1006500011242F938F939F93EF93FF93E091C902FF
:10066000F091CA028081E091CF02F091D00282FD28
:100670001BC090818091D2028F5F8F732091D30233
:10068000821741F0E091D202F0E0E754FD4F958FE0
:100690008093D202FF91EF919F918F912F910F90B4
:1006A0000FBE0F901F9018958081F4CF1F920F926C
:1006B0000FB60F9211242F933F938F939F93AF9375
:1006C000BF938091AC029091AD02A091AE02B09127
:1006D000AF023091A20223E0230F2D3758F5019687
:1006E000A11DB11D2093A2028093AC029093AD0294
:1006F000A093AE02B093AF028091A3029091A402A6
:10070000A091A502B091A6020196A11DB11D8093F2
:10071000A3029093A402A093A502B093A602BF9156
:10072000AF919F918F913F912F910F900FBE0F909E
:100730001F90189526E8230F0296A11DB11DD2CF58
:100740001F920F920FB60F9211242F933F934F9346
:100750005F936F937F938F939F93AF93BF93EF9329
:10076000FF93E0910201F09103010995FF91EF9150
:10077000BF91AF919F918F917F916F915F914F91B9
:100780003F912F910F900FBE0F901F9018951F92C1
:100790000F920FB60F9211242F933F934F935F93B5
:1007A0006F937F938F939F93AF93BF93EF93FF9339
:1007B000E0910001F09101010995FF91EF91BF9146
:1007C000AF919F918F917F916F915F914F913F91E9
:1007D0002F910F900FBE0F901F901895789484B5AD
:1007E000826084BD84B5816084BD85B5826085BD2D
:1007F00085B5816085BD80916E00816080936E00BB
:1008000010928100809181008260809381008091AC
:10081000810081608093810080918000816080935D
:1008200080008091B10084608093B1008091B0001D
:1008300081608093B00080917A00846080937A0018
:1008400080917A00826080937A0080917A00816042
:1008500080937A0080917A00806880937A00109269
:10086000C100E091C902F091CA0282E08083E09168
:10087000C502F091C6021082E091C702F091C80251
:100880008FEC80831092D102E091CD02F091CE02E4
:1008900086E08083E091CB02F091CC028081806180
:1008A0008083E091CB02F091CC02808188608083CC
:1008B000E091CB02F091CC02808180688083E0914E
:1008C000CB02F091CC0280818F7D808361E083E058
:1008D0000E94140261E084E00E94140261E08DE055
:1008E0000E94140260E085E00E94140260E082E051
:1008F0000E9414028BE692E0909301018093000124
:1009000080916900836080936900E89A85E391E0B3
:100910000E94EC028EE591E00E94EC028AE791E0F1
:100920000E94EC0287E991E00E94EC0288EB91E0E2
:100930000E94EC028AE191E00E949B0260E083E069
:100940000E94E60160E084E00E94E60161E08DE043
:100950000E94E60193E0292E312C24EF422E5524EB
:100960005394612C712CC1E000E010E08FB7F89433
:100970008090AC029090AD02A090AE02B090AF0219
:100980008FBF8091B802882321F18091B2029091AB
:10099000B3020196B1010E9468069093B30280935E
:1009A000B2028130910509F439C18230910509F410
:1009B00044C1892B61F44092040150920501609278
:1009C00006017092070189ED91E00E94EC021092FD
:1009D000B8028091A7029091A802A091A902B091BB
:1009E000AA02B501A401481B590B6A0B7B0B80912D
:1009F000040190910501A0910601B09107014817EB
:100A000059076A077B07E0F06091B1026C27609399
:100A1000B10283E00E94E6018092A7029092A802B0
:100A2000A092A902B092AA0287E292E00E949B02E1
:100A30008091B102811110C180E291E00E94EC022C
:100A40000E94C201D1E0009709F4D0E0892BC1F0E7
:100A50008091AB02811114C06091B0026C27609349
:100A6000B00284E00E94E60181E392E00E949B02D2
:100A70008091B0028111F3C080E291E00E94EC020B
:100A8000D093AB028091B4029091B502A091B602CE
:100A9000B091B702A5019401281B390B4A0B5B0BDF
:100AA000DA01C901803D9740A105B10508F486C06F
:100AB0008DE492E00E94EC0283E692E00E949B02A9
:100AC000C090B202D090B3020D2C000CEE08FF08CB
:100AD0004AE0C701B601F7FE0DC06DE289EB92E076
:100AE0000E942C0166277727CB016C197D098E099E
:100AF0009F094AE00E94A80280E792E00E949B02C0
:100B000060910401709105018091060190910701A7
:100B10004AE00E94A80283E292E00E94EC0287E28F
:100B200092E00E949B028091B10281119BC080E201
:100B300091E00E94EC0281E492E00E949B0280918D
:100B4000B002811192C080E291E00E94EC028DE738
:100B500092E00E949B020E94C201892B09F088C08A
:100B60008CE291E00E94EC028CE892E00E949B02F1
:100B70002FB7F8946091AC027091AD028091AE02F3
:100B80009091AF022FBF28EE33E040E050E00E948A
:100B90007C06CA01B9014AE00E94A80285E992E0F8
:100BA0000E94EC028AE191E00E949B028092B402D2
:100BB0009092B502A092B602B092B7020E9445028E
:100BC0004B015C018AE0C82ED12CE12CF12C0E9453
:100BD0004502681979098A099B09683E73408105B5
:100BE0009105A8F341E0C41AD108E108F10858EED4
:100BF000850E53E0951EA11CB11CC114D104E10463
:100C0000F10429F70115110509F4B0CE0E94F60090
:100C1000882309F4A8CE0E940000A5CE24E630E087
:100C200040E050E020930401309305014093060119
:100C30005093070184EF91E0C8CE88EE93E0A0E0E6
:100C4000B0E08093040190930501A0930601B09356
:100C500007018DE092E0B9CE8DE191E0EFCE8DE11C
:100C600091E00CCF8DE191E064CF8DE191E06DCF0B
:100C700084E291E077CFE9EBF2E01382128288EE12
:100C800093E0A0E0B0E084839583A683B7838CE0F3
:100C900091E09183808385EC90E09587848784EC54
:100CA00090E09787868780EC90E0918B808B81EC39
:100CB00090E0938B828B82EC90E0958B848B86EC1A
:100CC00090E0978B868B118E128E138E148E089562
:100CD00097FB072E16F4009407D077FD09D00E94E9
:100CE0009E0607FC05D03EF4909581959F4F089590
:100CF000709561957F4F0895A1E21A2EAA1BBB1B28
:100D0000FD010DC0AA1FBB1FEE1FFF1FA217B307D7
:100D1000E407F50720F0A21BB30BE40BF50B661FED
:100D2000771F881F991F1A9469F7609570958095B1
:100D300090959B01AC01BD01CF010895AA1BBB1B7F
:100D400051E107C0AA1FBB1FA617B70710F0A61BCB
:100D5000B70B881F991F5A95A9F780959095BC01EC
:100D6000CD010895EE0FFF1F0590F491E02D099439
:040D7000F894FFCF25
:100D74006A026A02F4010000000000002C018C00E9
:100D8400B9007901EA00C800DC000D0A004F4E00EA
:100D94004F464600505245535345440052454C4536
:100DA40041534544003D3D3D205052414354494345
:100DB4004520313A204449474954414C2047504941
:100DC4004F20434F4E54524F4C203D3D3D00526501
:100DD40064204C45443A204175746F6D61746963B5
:100DE40020626C696E6B696E6700477265656E2080
:100DF4004C45443A20427574746F6E20636F6E7470
:100E0400726F6C6C6564004D6F6465204275747418
:100E14006F6E3A204368616E67657320626C696E19
:100E24006B20737065656400427574746F6E20493D
:100E34006E7075743A20436F6E74726F6C732067B2
:100E44007265656E204C4544004D6F64653A204ED2
:100E54006F726D616C20626C696E6B202835303066
:100E64006D7329004D6F64653A2046617374206286
:100E74006C696E6B20283130306D7329004D6F64BE
:100E8400653A20536C6F7720626C696E6B20283151
:100E94003030306D732900526564204C45443A204B
:100EA40000427574746F6E2070726573736564218B
:100EB40020477265656E204C45443A20002D2D2D47
:100EC40020535441545553205245504F5254202DD1
:100ED4002D2D00426C696E6B204D6F64653A2000C5
:100EE4002028496E74657276616C3A2000427574EC
:100EF400746F6E2053746174653A20005570746980
:0E0F04006D653A2000207365636F6E647300A4
:00000001FF
