:100000000C945D000C9485000C9485000C94850084
:100010000C9485000C9485000C9485000C9485004C
:100020000C9485000C9485000C9485000C9485003C
:100030000C9485000C9485000C9485000C9485002C
:100040000C94DE030C9485000C94AC030C94860392
:100050000C9485000C9485000C9485000C9485000C
:100060000C9485000C94850000000008000201003B
:100070000003040700000000000000000000000072
:10008000250028002B0000000000240027002A0083
:10009000040404040404040402020202020203032E
:1000A0000303030301020408102040800102040836
:1000B0001020010204081020A10711241FBECFEF59
:1000C000D8E0DEBFCDBF13E0A0E0B1E0E8EEF4E1A0
:1000D00002C005900D92AC3DB107D9F724E0ACED1C
:1000E000B3E001C01D92A539B207E1F710E0CDE5FC
:1000F000D0E004C02197FE010E946C0ACC35D107E4
:10010000C9F70E9428040C94720A0C94000082E43F
:1001100080937C0080917A00806480937A00809143
:100120007A0086FDFCCF8091780090917900089547
:1001300090E0FC01EC55FF4F249180579F4FFC014C
:100140008491882399F090E0880F991FFC01EA5769
:10015000FF4FA591B491FC01E458FF4F8591949114
:100160008FB7F894EC91E22BEC938FBF0895AF9288
:10017000BF92CF92DF92EF92FF920F931F93CF9394
:10018000DF936C017B018B01040F151FEB015E01F6
:10019000AE18BF08C017D10759F06991D601ED918B
:1001A000FC910190F081E02DC6010995892B79F72A
:1001B000C501DF91CF911F910F91FF90EF90DF90DC
:1001C000CF90BF90AF900895FC01538D448D252FA3
:1001D00030E0842F90E0821B930B541710F0CF96E1
:1001E000089501970895FC01918D828D981761F013
:1001F000A28DAE0FBF2FB11D5D968C91928D9F5F2A
:100200009F73928F90E008958FEF9FEF0895FC0108
:10021000918D828D981731F0828DE80FF11D858DBB
:1002200090E008958FEF9FEF0895FC01918D228D4E
:10023000892F90E0805C9F4F821B91098F739927D3
:10024000089588EF93E00E94150121E0892B09F4BD
:1002500020E0822F089580E090E0892B29F00E9411
:10026000210181110C9400000895FC01A48DA80FB8
:10027000B92FB11DA35ABF4F2C91848D90E00196E8
:100280008F739927848FA689B7892C93A089B18908
:100290008C91837080648C93938D848D981306C0A9
:1002A0000288F389E02D80818F7D80830895EF920D
:1002B000FF920F931F93CF93DF93EC0181E0888F20
:1002C0009B8D8C8D98131AC0E889F989808185FFF0
:1002D00015C09FB7F894EE89FF896083E889F98992
:1002E00080818370806480839FBF81E090E0DF9194
:1002F000CF911F910F91FF90EF900895F62E0B8DE7
:1003000010E00F5F1F4F0F731127E02E8C8D8E11A1
:100310000CC00FB607FCFACFE889F989808185FF08
:10032000F5CFCE010E943501F1CFEB8DEC0FFD2F03
:10033000F11DE35AFF4FF0829FB7F8940B8FEA89C3
:10034000FB8980818062CFCFCF93DF93EC01888DD2
:100350008823B9F0AA89BB89E889F9898C9185FD40
:1003600003C0808186FD0DC00FB607FCF7CF8C91CE
:1003700085FFF2CF808185FFEDCFCE010E94350150
:10038000E9CFDF91CF91089590E0FC01E859FF4F4C
:100390002491FC01EC55FF4F3491FC01E057FF4FD5
:1003A000E491EE23C9F0222339F0233001F1A8F4BF
:1003B000213019F1223029F1F0E0EE0FFF1FE4584F
:1003C000FF4FA591B4918FB7F894EC91611126C0BD
:1003D00030953E233C938FBF08952730A9F02830F5
:1003E000C9F0243049F7809180008F7D03C080914F
:1003F00080008F7780938000DFCF84B58F7784BDB6
:10040000DBCF84B58F7DFBCF8091B0008F77809359
:10041000B000D2CF8091B0008F7DF9CF3E2BDACFE4
:10042000FC0101900020E9F73197AF01481B590BFF
:10043000BC0188EF93E00C94B7008F929F92AF922B
:10044000BF920F931F93CF93DF93CDB7DEB7A197E2
:100450000FB6F894DEBF0FBECDBF19A2423008F42C
:100460004AE08E010F5D1F4F842E912CB12CA12CE0
:10047000A50194010E94F807E62FB901CA01EA30EC
:10048000F4F4E05DD801EE938D01232B242B252B72
:1004900079F790E080E0109719F0CD010E941002EA
:1004A000A1960FB6F894DEBF0FBECDBFDF91CF91FE
:1004B0001F910F91BF90AF909F908F900895E95C2E
:1004C000E1CFCF92DF92EF92FF92CF93DF936B0158
:1004D0007C016DE288EF93E00E945701EC016627F2
:1004E0007727CB016C197D098E099F094AE00E948C
:1004F0001D028C0F9D1FDF91CF91FF90EF90DF9039
:10050000CF9008950C941002CF93DF930E941002B5
:10051000EC0186E191E00E9410028C0F9D1FDF919B
:10052000CF910895BC01990F880B990B97FD0C94FE
:1005300061024AE00C941D02CF93DF930E94920265
:10054000EC0186E191E00E9410028C0F9D1FDF916B
:10055000CF9108954F925F926F927F928F929F9268
:10056000AF92BF92CF92DF92EF92FF920F931F93C1
:10057000CF936B017C01742EAC019B010E94600A39
:10058000882399F089E191E0CF911F910F91FF901D
:10059000EF90DF90CF90BF90AF909F908F907F9023
:1005A0006F905F904F900C94100246015701E894B1
:1005B000B7F82FEF3FEF4FE75FE7C501B4010E94A7
:1005C000600A81110DC02FEF3FEF4FE75FE7C501D4
:1005D000B4010E94960818161CF48DE191E0D4CF66
:1005E0002FEF3FEF4FE75FE4C701B6010E94EE092E
:1005F00018161CF481E291E0C7CF2FEF3FEF4FE7D1
:100600005FECC701B6010E94960887FDF3CF20E09A
:1006100030E0A901C701B6010E94960810E000E091
:1006200087FF0AC06DE288EF93E00E9457018C01BA
:10063000F7FAF094F7F8F094C0E060E070E080E042
:100640009FE37C1641F020E030E040E251E40E945C
:100650009B08CF5FF6CFA70196010E942A082B01C5
:100660003C010E940D094B015C014AE00E941D0201
:100670007C01E00EF11ECC23C1F1C501B4010E9442
:100680003C099B01AC01C301B2010E9429084B0146
:100690005C016EE288EF93E00E945701E80EF91EBC
:1006A000C15018F120E030E040E251E4C501B4014E
:1006B0000E94F3092B013C010E940D094B01B12C52
:1006C000A12C4AE0C501B4010E941D02E80EF91EEA
:1006D000C501B4010E943C099B01AC01C301B201F8
:1006E0000E9429084B015C01DBCFC701CF911F910C
:1006F0000F91FF90EF90DF90CF90BF90AF909F90C1
:100700008F907F906F905F904F9008951F920F92FF
:100710000FB60F9211242F933F934F935F936F93D4
:100720007F938F939F93AF93BF93EF93FF9388EF44
:1007300093E00E943501FF91EF91BF91AF919F919E
:100740008F917F916F915F914F913F912F910F907A
:100750000FBE0F901F9018951F920F920FB60F9219
:1007600011242F938F939F93EF93FF93E0910804AD
:10077000F09109048081E0910E04F0910F0482FD54
:100780001BC09081809111048F5F8F7320911204A0
:10079000821741F0E0911104F0E0E850FC4F958F92
:1007A00080931104FF91EF919F918F912F910F9062
:1007B0000FBE0F901F9018958081F4CF1F920F925B
:1007C0000FB60F9211242F933F938F939F93AF9364
:1007D000BF938091E1039091E203A091E303B09174
:1007E000E4033091E00323E0230F2D3758F5019601
:1007F000A11DB11D2093E0038093E1039093E203D8
:10080000A093E303B093E4038091DC039091DD03B4
:10081000A091DE03B091DF030196A11DB11D80936D
:10082000DC039093DD03A093DE03B093DF03BF915D
:10083000AF919F918F913F912F910F900FBE0F908D
:100840001F90189526E8230F0296A11DB11DD2CF47
:10085000789484B5826084BD84B5816084BD85B59B
:10086000826085BD85B5816085BD80916E008160A7
:1008700080936E001092810080918100826080934D
:10088000810080918100816080938100809180004F
:100890008160809380008091B10084608093B1007A
:1008A0008091B00081608093B00080917A00846074
:1008B00080937A0080917A00826080937A008091A0
:1008C0007A00816080937A0080917A0080688093BA
:1008D0007A001092C100E0910804F091090482E0CE
:1008E0008083E0910404F09105041082E0910604F5
:1008F000F09107048FEC808310921004E0910C04B7
:10090000F0910D0486E08083E0910A04F0910B04DD
:10091000808180618083E0910A04F0910B048081E2
:1009200088608083E0910A04F0910B0480818068E4
:100930008083E0910A04F0910B0480818F7D808395
:1009400086E00E9498008DE00E94980085E291E088
:100950000E9484028EE491E00E94840284E791E088
:100960000E94840287E991E00E94840286E191E07E
:100970000E9410020E9487009093F2038093F1037B
:100980008BEB91E00E9482028091F1039091F2033F
:100990000E949C0261E08DE00E94C40188EE882ED6
:1009A00083E0982EA12CB12C22242A9493E0392E96
:1009B0008FB7F894C090E103D090E203E090E30396
:1009C000F090E4038FBF88EF93E00E941501892B1C
:1009D00079F088EF93E00E94F300833509F4FEC0BC
:1009E0000CF0C9C0833409F4CEC0823509F480C14B
:1009F0008091F703882309F486C10E948700EC01E7
:100A00008091020190910301C817D90724F4D09373
:100A10000301C09302018091EF039091F0038C17C2
:100A20009D0724F4D093F003C093EF038091E90372
:100A30009091EA03A091EB03B091EC03A70196011A
:100A4000281B390B4A0B5B0BDA01C901883C910565
:100A5000A105B10508F444C088E093E00E94820239
:100A6000CE010E94920282E193E00E948202809174
:100A70000201909103010E9492028BE193E00E9497
:100A800082028091EF039091F0030E94920284E22F
:100A900093E00E9482026091E5037091E6038091E9
:100AA000E7039091E80368577C4E8F4F9F4F6C1976
:100AB0007D098E099F09A50194010E94F807CA01CA
:100AC000B9014AE00E941D0286E093E00E94840280
:100AD000C092E903D092EA03E092EB03F092EC03B8
:100AE0008091E5039091E603A091E703B091E803BC
:100AF000C81AD90AEA0AFB0A38E8C31633E1D30652
:100B0000E104F10458F11092F70383E393E00E94AB
:100B1000840281E593E00E9482028091020190911B
:100B200003010E9492028CE992E00E94820280916D
:100B3000EF039091F0030E949C028091EF0390914B
:100B4000F0032091020130910301821B930B843644
:100B5000910524F484E693E00E94840220E030E0D2
:100B6000232B09F425CF0E942101882309F420CFEB
:100B70000E9400001DCF823709F4BAC0833771F19B
:100B8000833609F035CF81E08093F7032FB7F894CF
:100B90008091E1039091E203A091E303B091E4031B
:100BA0002FBF8093E5039093E603A093E703B093F0
:100BB000E80330920301209202011092F003109298
:100BC000EF038BED91E00E94840285EF91E00E949B
:100BD000840287E292E00E9484020ACF8DE492E0D0
:100BE0000E94840286E692E00E9482028091F103D4
:100BF0009091F2030E94920287EB92E00E9482029F
:100C00006091F1037091F203072E000C880B990B91
:100C10000E943E0920E030EC4FE754E40E949B081C
:100C200020E030E040EA50E40E94F30942E00E94F4
:100C3000AA0286E792E00E94840289E792E00E947D
:100C400082028091ED039091EE030E94920287EB65
:100C500092E00E9482026091ED037091EE03072EF4
:100C6000000C880B990B0E943E0920E030E04FE712
:100C700053E40E949B0820E030E048EC52E40E94DC
:100C8000F30941E00E94AA0285E892E00E948402F2
:100C900088E892E00E948202809102019091030113
:100CA0000E9492028CE992E00E9482028091EF03FE
:100CB0009091F0030E949C0281EA92E00E948202DD
:100CC00044E060E070E080EA9BE30E94AA028AEBC5
:100CD00092E00E94840286EC92E00E94820286E00A
:100CE00090E00E949C0286E191E00E94100280CE7A
:100CF00030920301209202011092F0031092EF0350
:100D000084EE92E068CF8091F3039091F403A09178
:100D1000F503B091F603A7019601281B390B4A0B86
:100D20005B0BDA01C901C297A105B10508F4AEC099
:100D30000E948700EC019093F2038093F103E0910D
:100D4000EF03F091F00340900201509003014E1622
:100D50005F062CF5052C000C660877089C01990F9E
:100D6000440B550B2419350946095709AFEFB3E079
:100D70000E94ED079F01FF0F440B550B2419350905
:100D8000460957090E94CE07E901C11534E0D3078F
:100D900014F0CFEFD3E0D7FF02C0D0E0C0E02FEFD8
:100DA00030E0DE010E94650A2FEF33E040E050E0C2
:100DB0000E94CE07722E632E022F132F1093EE0384
:100DC0000093ED0386E00E9498000115110509F0DB
:100DD00069C060E086E00E94C4018091F1039091B7
:100DE000F2032091000130910101821B930B97FFC8
:100DF00003C091958195910906970CF43FC086EA4E
:100E000093E00E9482028091F1039091F2030E948C
:100E1000920280EB93E00E948202CE010E94920235
:100E200080EC93E00E9482028091ED039091EE03AA
:100E30000E94920289EC93E00E948202A091ED034D
:100E4000B091EE0324E630E00E94650A2FEF30E017
:100E500040E050E00E94CE07CA01B90197FF6DC083
:100E60000E94610289ED93E00E9484028091F10367
:100E70009091F2039093010180930001C092F303DB
:100E8000D092F403E092F503F092F603C701B601A5
:100E9000A50194010E94F807622F61708DE00E9405
:100EA000C4015CCE0F3F110511F461E093CFEEE673
:100EB000F0E08491833029F140F48130C1F0823038
:100EC000D9F0003811058CF784CF873031F18830A4
:100ED00061F18430B1F7809180008062809380005E
:100EE000872D962D90938B0080938A0076CF84B5C2
:100EF000806884BD77BC71CF84B5806284BD78BCC6
:100F00006CCF80918000806880938000872D962D23
:100F1000909389008093880060CF8091B0008068B2
:100F20008093B0007092B30058CF8091B00080627F
:100F30008093B0007092B40050CF4AE00E941D022E
:100F400091CFE8EFF3E01382128288EE93E0A0E005
:100F5000B0E084839583A683B78388E091E0918392
:100F6000808385EC90E09587848784EC90E0978778
:100F7000868780EC90E0918B808B81EC90E0938B66
:100F8000828B82EC90E0958B848B86EC90E0978B43
:100F9000868B118E128E138E148E0895052E97FB5C
:100FA0001EF400940E94E50757FD07D00E94F80741
:100FB00007FC03D04EF40C94E5075095409530950E
:100FC00021953F4F4F4F5F4F0895909580957095B5
:100FD00061957F4F8F4F9F4F08950E941A08A59FDC
:100FE000900DB49F900DA49F800D911D1124089524
:100FF000A1E21A2EAA1BBB1BFD010DC0AA1FBB1F1D
:10100000EE1FFF1FA217B307E407F50720F0A21B8E
:10101000B30BE40BF50B661F771F881F991F1A94FB
:1010200069F760957095809590959B01AC01BD0125
:10103000CF010895A29FB001B39FC001A39F700D7F
:10104000811D1124911DB29F700D811D1124911DD0
:1010500008955058BB27AA270E9441080C94B40950
:101060000E94A60938F00E94AD0920F039F49F3F94
:1010700019F426F40C94A3090EF4E095E7FB0C9404
:101080009D09E92F0E94C50958F3BA176207730733
:101090008407950720F079F4A6F50C94E7090EF47F
:1010A000E0950B2EBA2FA02D0B01B90190010C0178
:1010B000CA01A0011124FF27591B99F0593F50F490
:1010C000503E68F11A16F040A22F232F342F4427E8
:1010D000585FF3CF469537952795A795F0405395E0
:1010E000C9F77EF41F16BA0B620B730B840BBAF0B0
:1010F0009150A1F0FF0FBB1F661F771F881FC2F71B
:101100000EC0BA0F621F731F841F48F4879577952E
:101110006795B795F7959E3F08F0B0CF9395880FE8
:1011200008F09927EE0F9795879508950E94790901
:1011300008F481E008950E94AF080C94B4090E945D
:10114000AD0958F00E94A60940F029F45F3F29F04C
:101150000C949D0951110C94E8090C94A3090E9468
:10116000C50968F39923B1F3552391F3951B550BEA
:10117000BB27AA2762177307840738F09F5F5F4F6A
:10118000220F331F441FAA1FA9F335D00E2E3AF0A9
:10119000E0E832D091505040E695001CCAF72BD0C1
:1011A000FE2F29D0660F771F881FBB1F2617370712
:1011B0004807AB07B0E809F0BB0B802DBF01FF2744
:1011C00093585F4F3AF09E3F510578F00C949D097B
:1011D0000C94E8095F3FE4F3983ED4F38695779545
:1011E0006795B795F7959F5FC9F7880F911D9695FD
:1011F000879597F90895E1E0660F771F881FBB1F59
:10120000621773078407BA0720F0621B730B840B05
:10121000BA0BEE1F88F7E09508950E94CD0988F07B
:101220009F5798F0B92F9927B751B0F0E1F0660FAA
:10123000771F881F991F1AF0BA95C9F714C0B130EB
:1012400091F00E94E709B1E008950C94E709672F37
:10125000782F8827B85F39F0B93FCCF3869577951A
:101260006795B395D9F73EF4909580957095619503
:101270007F4F8F4F9F4F0895E89409C097FB3EF42E
:1012800090958095709561957F4F8F4F9F4F9923D3
:10129000A9F0F92F96E9BB279395F6958795779551
:1012A0006795B795F111F8CFFAF4BB0F11F460FF11
:1012B0001BC06F5F7F4F8F4F9F4F16C0882311F069
:1012C00096E911C0772321F09EE8872F762F05C07D
:1012D000662371F096E8862F70E060E02AF09A9518
:1012E000660F771F881FDAF7880F9695879597F90D
:1012F0000895990F0008550FAA0BE0E8FEEF1616A7
:101300001706E807F907C0F012161306E407F507F9
:1013100098F0621B730B840B950B39F40A2661F06D
:10132000232B242B252B21F408950A2609F4A14010
:10133000A6958FEF811D811D089597F99F6780E81D
:1013400070E060E008959FEF80EC089500240A9417
:101350001616170618060906089500240A94121690
:101360001306140605060895092E0394000C11F4C3
:10137000882352F0BB0F40F4BF2B11F460FF04C070
:101380006F5F7F4F8F4F9F4F089557FD9058440FC9
:10139000551F59F05F3F71F04795880F97FB991FD4
:1013A00061F09F3F79F08795089512161306140691
:1013B000551FF2CF4695F1DF08C01616170618061E
:1013C000991FF1CF86957105610508940895E894F9
:1013D000BB2766277727CB0197F908950E947909E3
:1013E00008F48FEF08950E94060A0C94B4090E9435
:1013F000A60938F00E94AD0920F0952311F00C9455
:101400009D090C94A30911240C94E8090E94C509B4
:1014100070F3959FC1F3950F50E0551F629FF00147
:10142000729FBB27F00DB11D639FAA27F00DB11D60
:10143000AA1F649F6627B00DA11D661F829F2227E9
:10144000B00DA11D621F739FB00DA11D621F839F70
:10145000A00D611D221F749F3327A00D611D231F46
:10146000849F600D211D822F762F6A2F11249F5794
:1014700050409AF0F1F088234AF0EE0FFF1FBB1F97
:10148000661F771F881F91505040A9F79E3F510556
:1014900080F00C949D090C94E8095F3FE4F3983EBA
:1014A000D4F3869577956795B795F795E7959F5F00
:1014B000C1F7FE2B880F911D9695879597F9089592
:1014C0000E947909880B990B08950E941A08B7FFAA
:1014D0000895821B930B0895EE0FFF1F0590F49162
:0814E000E02D0994F894FFCF00
:1014E800FFFFFF03000000005701B700E400A4015C
:1014F8001501F30007010D0A006E616E00696E6642
:10150800006F7666003D3D3D2050524143544943AB
:101518004520323A20414E414C4F4720494E5055C4
:101528005420434F4E54524F4C203D3D3D00506F88
:1015380074656E74696F6D6574657220636F6E741F
:10154800726F6C73204C4544206272696768746ED0
:101558006573730053656E642027632720746F20BA
:1015680073746172742063616C6962726174696F0B
:101578006E206D6F6465004144432052616E67655B
:101588003A20302D313032332C2050574D205261C3
:101598006E67653A20302D32353500496E697469B9
:1015A800616C20706F74656E74696F6D65746572B7
:1015B8002072656164696E673A20000A3D3D3D20EE
:1015C80043414C4942524154494F4E204D4F4445A6
:1015D800203D3D3D005475726E20706F74656E74C9
:1015E800696F6D6574657220746F2066756C6C2008
:1015F80072616E676520666F722035207365636F50
:101608006E64732E2E2E004D6F76652066726F6D98
:10161800206D696E696D756D20746F206D617869D4
:101628006D756D20706F736974696F6E000A3D3D4A
:101638003D2044455441494C454420535441545558
:1016480053203D3D3D00526177204144432056617F
:101658006C75653A200056290050574D2056616C2C
:1016680075653A200025290043616C6962726174CE
:10167800696F6E2052616E67653A200020746F2092
:1016880000414443205265736F6C7574696F6E3AFC
:101698002031302D62697420280056207065722030
:1016A80073746570290050574D20467265717565D1
:1016B8006E63793A207E343930487A206F6E207014
:1016C800696E200043616C6962726174696F6E2093
:1016D800726573657420746F2064656661756C74D7
:1016E8002076616C7565730043757272656E743A25
:1016F8002000207C204D696E3A2000207C204D611E
:10170800783A2000207C2054696D65206C656674E9
:101718003A20000A3D3D3D2043414C494252415444
:10172800494F4E20434F4D504C455445203D3D3D7B
:101738000043616C696272617465642072616E67EE
:10174800653A20005761726E696E673A2043616C92
:101758006962726174696F6E2072616E6765206973
:101768007320736D616C6C2E2054727920616761EF
:10177800696E20776974682066756C6C6572207272
:10178800616E67652E00506F74205261773A2000B1
:10179800207C2043616C696272617465643A200040
:1017A800207C2050574D3A2000207C2042726967E7
:0C17B80068746E6573733A200025000011
:00000001FF
