:100000000C946C000C9494000C9494000C94940048
:100010000C9494000C9494000C9494000C94940010
:100020000C9494000C9494000C9494000C94BB04D5
:100030000C9494000C9494000C9494000C949400F0
:100040000C9471040C9494000C943F040C941904C7
:100050000C9494000C9494000C9494000C949400D0
:100060000C9494000C94940005A84CCDB2D44EB9D5
:100070003836A9020C50B9918688083CA6AAAA2A4B
:10008000BE000000803F00000008000201000003E5
:100090000407000000000000000000000000250030
:1000A00028002B0000000000240027002A00040480
:1000B0000404040404040202020202020303030310
:1000C00003030102040810204080010204081020EC
:1000D000010204081020770511241FBECFEFD8E0DD
:1000E000DEBFCDBF13E0A0E0B1E0E6E2FCE102C07C
:1000F00005900D92A63CB107D9F724E0A6ECB3E039
:1001000001C01D92AE3AB207E1F710E0CCE6D0E0B4
:1001100004C02197FE010E940B0ECB36D107C9F710
:100120000E94D4050C94110E0C94000082E480937C
:100130007C0080917A00806480937A0080917A00BC
:1001400086FDFCCF80917800909179000895CF9240
:10015000DF92EF92FF92DC01A03282E0B807D4F583
:10016000A53BB10514F0A4EBB0E04091AC0428E845
:1001700030E0241B310947FD3395220F331F220F36
:10018000331F6901330FEE08FF084091AD0428E5E5
:1001900032E0241B310947FD3395220F331F220F14
:1001A000331F032E000C440B550B2C193D094E092F
:1001B0005F09B7FF02C0B0E0A0E00E94C40A24EBD0
:1001C00030E040E050E00E949A0AC20ED31EE41EC6
:1001D000F51ED601E091AB04EC3080F52091AC0423
:1001E00088E890E0821B910927FD9395880F991F5D
:1001F000880F991FA817B90784F02091AD0488E5EE
:1002000092E0821B910927FD9395880F991F880F13
:10021000991FA817B9070CF4CD010297880F991FF1
:100220004FB7F8942E2F30E0F901EE0FFF1FE20FC9
:10023000F31FEA57FB4F928381834FBFFF90EF90EC
:10024000DF90CF90089590E0FC01EE53FF4F249192
:1002500082559F4FFC018491882399F090E0880F8C
:10026000991FFC01EC55FF4FA591B491FC01E65696
:10027000FF4F859194918FB7F894EC91E22BEC931A
:100280008FBF0895AF92BF92CF92DF92EF92FF920D
:100290000F931F93CF93DF936C017B018B01040FAE
:1002A000151FEB015E01AE18BF08C017D10759F04A
:1002B0006991D601ED91FC910190F081E02DC6018C
:1002C0000995892B79F7C501DF91CF911F910F9186
:1002D000FF90EF90DF90CF90BF90AF900895FC011A
:1002E000538D448D252F30E0842F90E0821B930B9B
:1002F000541710F0CF96089501970895FC01918D41
:10030000828D981761F0A28DAE0FBF2FB11D5D9643
:100310008C91928D9F5F9F73928F90E008958FEFE5
:100320009FEF0895FC01918D828D981731F0828D99
:10033000E80FF11D858D90E008958FEF9FEF0895F0
:10034000FC01918D228D892F90E0805C9F4F821B54
:1003500091098F739927089589EE93E00E94A00177
:1003600021E0892B09F420E0822F089580E090E0BD
:10037000892B29F00E94AC0181110C940000089592
:10038000FC01A48DA80FB92FB11DA35ABF4F2C910A
:10039000848D90E001968F739927848FA689B78901
:1003A0002C93A089B1898C91837080648C93938DF8
:1003B000848D981306C00288F389E02D80818F7D9B
:1003C00080830895EF92FF920F931F93CF93DF9353
:1003D000EC0181E0888F9B8D8C8D98131AC0E88981
:1003E000F989808185FF15C09FB7F894EE89FF8950
:1003F0006083E889F98980818370806480839FBFEE
:1004000081E090E0DF91CF911F910F91FF90EF90ED
:100410000895F62E0B8D10E00F5F1F4F0F731127FD
:10042000E02E8C8D8E110CC00FB607FCFACFE88938
:10043000F989808185FFF5CFCE010E94C001F1CFFF
:10044000EB8DEC0FFD2FF11DE35AFF4FF0829FB7AC
:10045000F8940B8FEA89FB8980818062CFCFCF939C
:10046000DF93EC01888D8823B9F0AA89BB89E889DC
:10047000F9898C9185FD03C0808186FD0DC00FB682
:1004800007FCF7CF8C9185FFF2CF808185FFEDCF00
:10049000CE010E94C001E9CFDF91CF91089590E095
:1004A000FC01EA57FF4F2491FC01EE53FF4F3491BA
:1004B000FC01E255FF4FE491EE23C9F0222339F00D
:1004C000233001F1A8F4213019F1223029F1F0E0B4
:1004D000EE0FFF1FE656FF4FA591B4918FB7F8942A
:1004E000EC91611126C030953E233C938FBF089557
:1004F0002730A9F02830C9F0243049F780918000D6
:100500008F7D03C0809180008F7780938000DFCF44
:1005100084B58F7784BDDBCF84B58F7DFBCF809191
:10052000B0008F778093B000D2CF8091B0008F7DE4
:10053000F9CF3E2BDACFCF93DF93EC0186E00E9418
:100540002301209731F460E086E0DF91CF910C9495
:100550004F02CF3FD10511F461E0F6CFECE8F0E0B7
:10056000E491E33029F140F4E130B1F0E230D9F028
:10057000C038D1058CF7E7CFE73021F1E83051F1F1
:10058000E430B1F780918000806280938000D09346
:100590008B00C0938A0004C084B5806884BDC7BD49
:1005A000DF91CF91089584B5806284BDC8BDF8CF36
:1005B00080918000806880938000D0938900C093F0
:1005C0008800EECF8091B00080688093B000C09327
:1005D000B300E6CF8091B00080628093B000C093FA
:1005E000B400DECF3FB7F8948091C8039091C9035F
:1005F000A091CA03B091CB0326B5A89B05C02F3F9D
:1006000019F00196A11DB11D3FBFBA2FA92F982F38
:100610008827BC01CD01620F711D811D911D42E033
:10062000660F771F881F991F4A95D1F708958F92FB
:100630009F92AF92BF92CF92DF92EF92FF924B01C7
:100640005C010E94F2026B017C010E94F2026C19B3
:100650007D098E099F09683E734081059105A8F3C5
:1006600021E0821A9108A108B10888EEC80E83E043
:10067000D81EE11CF11C81149104A104B10429F7D6
:10068000FF90EF90DF90CF90BF90AF909F908F90B2
:100690000895CF92DF92EF92FF92CF93DF93EC0118
:1006A000C11584E0D80714F0CFEFD3E0D7FF02C024
:1006B000D0E0C0E0D093DD03C093DC032FEF30E047
:1006C000DE010E94F00DCC24CA9423E0D22EE12C4E
:1006D000F12CA70196010E949A0A3093DB03209324
:1006E000DA03C9010E949B0224EB30E0DE010E9484
:1006F000F00DA70196010E949A0A309302012093FF
:100700000101DF91CF91FF90EF90DF90CF9008959E
:10071000FC0101900020E9F73197AF01481B590B0C
:10072000BC0189EE93E00C9442018F929F92AF92AC
:10073000BF920F931F93CF93DF93CDB7DEB7A197EF
:100740000FB6F894DEBF0FBECDBF19A2423008F439
:100750004AE08E010F5D1F4F842E912CB12CA12CED
:10076000A50194010E94CC0AE62FB901CA01EA3022
:10077000F4F4E05DD801EE938D01232B242B252B7F
:1007800079F790E080E0109719F0CD010E9488037E
:10079000A1960FB6F894DEBF0FBECDBFDF91CF910B
:1007A0001F910F91BF90AF909F908F900895E95C3B
:1007B000E1CFCF93DF930E948803EC0187E191E0C2
:1007C0000E9488038C0F9D1FDF91CF9108950C9498
:1007D0008803CF92DF92EF92FF92CF93DF936C0169
:1007E000990FEE08FF08F7FE19C06DE289EE93E05D
:1007F0000E94E201EC0166277727CB016C197D0985
:100800008E099F094AE00E9495038C0F9D1FDF917E
:10081000CF91FF90EF90DF90CF9008954AE0C7010D
:10082000B601DF91CF91FF90EF90DF90CF900C94C5
:1008300095031F920F920FB60F9211242F933F939F
:100840004F935F936F937F938F939F93AF93BF93D8
:10085000EF93FF9389EE93E00E94C001FF91EF9127
:10086000BF91AF919F918F917F916F915F914F91C8
:100870003F912F910F900FBE0F901F9018951F92D0
:100880000F920FB60F9211242F938F939F93EF9394
:10089000FF93E091F903F091FA038081E091FF0367
:1008A000F091000482FD1BC09081809102048F5F53
:1008B0008F7320910304821741F0E0910204F0E06D
:1008C000E751FC4F958F80930204FF91EF919F9128
:1008D0008F912F910F900FBE0F901F9018958081D0
:1008E000F4CF1F920F920FB60F9211242F933F93C4
:1008F0008F939F93AF93BF938091D2039091D30333
:10090000A091D403B091D5033091C70323E0230F06
:100910002D3758F50196A11DB11D2093C703809373
:10092000D2039093D303A093D403B093D5038091C3
:10093000C8039091C903A091CA03B091CB0301965B
:10094000A11DB11D8093C8039093C903A093CA034E
:10095000B093CB03BF91AF919F918F913F912F9116
:100960000F900FBE0F901F90189526E8230F029648
:10097000A11DB11DD2CF1F920F920FB60F9211245D
:100980002F933F934F935F936F937F938F939F9397
:10099000AF93BF93CF93DF93EF93FF938091C60301
:1009A000C091AA04D0E087FF24C010928500109265
:1009B00084008091C6038F5F8093C6038091C60335
:1009C000082E000C990B8C179D0724F48091C60308
:1009D0008C30C4F18091840090918500049680341D
:1009E0009C4908F47AC08091840090918500049617
:1009F00076C08091C603082E000C990B8C179D07BA
:100A0000C4F6E091C6038E2FEE0F990BFC01EE0F9A
:100A1000FF1FE80FF91FEA57FB4F808186FFC9CF00
:100A2000E091C6038E2FEE0F990BFC01EE0FFF1F16
:100A3000E80FF91FEA57FB4F808160E08F730E9437
:100A40004F02B7CF2091840030918500E091C6031A
:100A50008E2FEE0F990BFC01EE0FFF1FE80FF91F11
:100A6000EA57FB4F81819281820F931F90938900F7
:100A700080938800E091C6038E2FEE0F990BFC0146
:100A8000EE0FFF1FE80FF91FEA57FB4F808186FF2B
:100A900011C0E091C6038E2FEE0F990BFC01EE0FF3
:100AA000FF1FE80FF91FEA57FB4F808161E08F734A
:100AB0000E944F02FF91EF91DF91CF91BF91AF91D3
:100AC0009F918F917F916F915F914F913F912F9166
:100AD0000F900FBE0F901F90189580E49CE99093A3
:100AE0008900809388008FEF8093C603E3CF109234
:100AF000EC031092EB0388EE93E0A0E0B0E080936B
:100B0000ED039093EE03A093EF03B093F00389E01D
:100B100091E09093EA038093E90385EC90E0909351
:100B2000F6038093F50384EC90E09093F8038093B0
:100B3000F70380EC90E09093FA038093F90381EC43
:100B400090E09093FC038093FB0382EC90E0909301
:100B5000FE038093FD0386EC90E090930004809365
:100B6000FF031092020410920304109204041092E6
:100B700005048091AA048C3098F491E0980F90932A
:100B8000AA048093AB0490E0FC01EE0FFF1FE80F76
:100B9000F91FEA57FB4F88EB9BE09283818308950E
:100BA0008FEF8093AB040895CF93DF9300D000D0F4
:100BB000CDB7DEB7789484B5826084BD84B581609A
:100BC00084BD85B5826085BD85B5816085BD809118
:100BD0006E00816080936E00109281008091810090
:100BE0008260809381008091810081608093810088
:100BF000809180008160809380008091B10084604A
:100C00008093B1008091B00081608093B0008091AA
:100C10007A00846080937A0080917A008260809369
:100C20007A0080917A00816080937A0080917A00C6
:100C3000806880937A001092C100E091F903F091EE
:100C4000FA0382E08083E091F503F091F6031082CD
:100C5000E091F703F091F8038FEC80831092010488
:100C6000E091FD03F091FE0386E08083E091FB03B9
:100C7000F091FC03808180618083E091FB03F0911F
:100C8000FC03808188608083E091FB03F091FC038A
:100C9000808180688083E091FB03F091FC03808178
:100CA0008F7D808386E00E9423018DE00E942301D6
:100CB0008091AB048C3008F050C089E00E94230181
:100CC0008091AB04282F30E0F901EE0FFF1FE20FF7
:100CD000F31FEA57FB4F9081907C996090831092AC
:100CE000AC041092AD042CE0622F0E94D00D829FC4
:100CF000B001112430E020E0AB01420F531FFA0194
:100D0000EE0FFF1FE40FF51FEA57FB4F908196FD92
:100D100016C02F5F3F4F2C30310571F781110FC086
:100D20001092800082E080938100109285001092E2
:100D30008400B19A80916F00826080936F00E0918F
:100D4000AB048E2F90E0FC01EE0FFF1FE80FF91FA0
:100D5000EA57FB4F8081806480838AE590E00E949F
:100D6000A70081E291E00E94D90388E491E00E940B
:100D7000D90386E891E00E94D90380E991E00E94BE
:100D8000D90389EA91E00E94D9038DEB91E00E949A
:100D9000D90387E191E00E9488030E949600909316
:100DA000DF038093DE039093DD038093DC0382ED09
:100DB00091E00E94E7038091DE039091DF030E949F
:100DC000E90387E191E00E94880361E08DE00E94E1
:100DD0004F0268EE73E080E090E00E9417030AE59E
:100DE00010E053E0252E312C8FB7F8944090D203B9
:100DF0005090D3036090D4037090D5038FBF89EED9
:100E000093E00E94A001892BE9F189EE93E00E9412
:100E10007E01843509F400C174F5843409F41EC1DF
:100E2000833509F444C1833469F58DEE92E00E9464
:100E3000D903109302010093010180910301909165
:100E400004018A35910509F433C28A3591050CF005
:100E50002DC20196909304018093030180910301B8
:100E6000909104010E94A7006FE070E080E090E0A4
:100E70000E941703E2CF843609F4F0C00CF0C6C01C
:100E8000833699F28091E803882309F47DC280912A
:100E9000CE039091CF03A091D003B091D103530121
:100EA0004201881A990AAA0ABB0AE090CC03F09082
:100EB000CD03C701B1010E94DC0D8130910509F419
:100EC00044C28230910509F44BC2892BF1F4C5016B
:100ED000B4010E94170C20E030E048E452E40E9484
:100EE0006F0B2DEC3CEC4CEC5DE30E94CE0C0E94B1
:100EF0003B0D20E030E84FEF53E40E94CE0C0E94FF
:100F0000E10BCB019E5F0E94490351E1851657E238
:100F10009506A104B10400F18FEFE81AF80AF092E7
:100F2000CD03E092CC034092CE035092CF03609267
:100F3000D0037092D10389E793E00E94E703809188
:100F4000CC039091CD03B1010E94DC0D0E94E90316
:100F500087E191E00E9488038091E0039091E10392
:100F6000A091E203B091E303A3019201281B390B86
:100F70004A0B5B0BDA01C9010F97A105B10560F1BE
:100F800080910301909104012091010130910201AF
:100F9000821793070CF0C8C20196909304018093C6
:100FA00003018091030190910401853B910514F0A8
:100FB00084EB90E097FF02C090E080E09093040102
:100FC000809303010E94A7004092E0035092E10346
:100FD0006092E2037092E303C301B20124EF31E0B7
:100FE00040E050E00E94CC0A622F61708DE00E94C8
:100FF0004F0240E050E0452B09F4F6CE0E94AC01D0
:10100000882309F4EECE0E940000EBCE833709F46A
:101010004EC0843709F036CF87E193E00E94D903B0
:1010200083E393E00E94D903A0910301B0910401EE
:10103000BA83A98329813A8137FD3DC1C9010E9444
:10104000A7006FE070E080E090E00E941703498104
:101050005A81415051095A834983ECCF8091E8036A
:1010600021E082278093E8038823E1F082EF91E07A
:101070000E94D9032FB7F8948091D2039091D303A3
:10108000A091D403B091D5032FBF8093CE0390934A
:10109000CF03A093D003B093D1031092CD0310924D
:1010A000CC03F0CE81E192E00E94D903EBCE80E345
:1010B00092E00E94D90387E492E00E94E7038091C6
:1010C000DE039091DF030E94E90387E592E00E942E
:1010D000E7038091DC039091DD030E94E90381E640
:1010E00092E00E94D9038DE692E00E94E70380918E
:1010F000DA039091DB030E94E9038EE792E00E94FD
:10110000E7036091DA037091DB03072E000C880B74
:10111000990B0E94190C20E030E04FE753E40E9445
:101120006F0B20E030E048EC52E40E94CE0C6B01E3
:101130007C014B015C01AC019B010E94430D8823A3
:10114000A9F185E892E00E94880381E992E00E947B
:10115000D90384E992E00E94E70380910301909112
:1011600004010E94E90385EA92E00E94E70380916E
:101170000101909102010E94E90382EB92E00E943A
:10118000D90386EB92E00E94E7038091E803811186
:101190008AC08DE191E00E94D90382EC92E00E9426
:1011A000E70387E191E00E9488036CCED701C60176
:1011B000BF7789839A83AB83BC832FEF3FEF4FE7E1
:1011C0005FE7BC01CD010E94430D81110FC02FEFDD
:1011D0003FEF4FE75FE769817A818B819C810E94B5
:1011E0006A0B18161CF489E892E0ADCF2FEF3FEFA1
:1011F0004FE75FE4C701B6010E94C90C18161CF442
:101200008DE892E0A0CF2FEF3FEF4FE75FECC701F3
:10121000B6010E946A0B87FDF3CF20E030E0A90100
:10122000C701B6010E946A0B87FF0BC06DE289EE11
:1012300093E00E94E20146015701B7FAB094B7F873
:10124000B0942DEC3CEC4CE45DE3C501B4010E948C
:10125000FE0A4B015C010E94E80B6B017C010E94BD
:10126000170C9B01AC01C501B4010E94FD0A4B01A2
:101270005C014AE0C701B6010E9495036EE289EE67
:1012800093E00E94E20120E030E040E251E4C50139
:10129000B4010E94CE0C0E94E80B90E080E04AE08E
:1012A0000E94950352CF8AE191E075CF0197D2CD8C
:1012B00080E093E0F9CE68EE73E080E090E00E9479
:1012C000170381E493E00E94D9031A82198289816D
:1012D0009A810E94A7006FE070E080E090E00E9499
:1012E000170389819A8101969A838983853B9105A9
:1012F00071F768EE73E080E090E00E94170381E5EB
:1013000093E00E94D903A4EBB0E0BA83A98389815A
:101310009A810E94A7006FE070E080E090E00E9458
:10132000170329813A81215031093A8329832935CC
:10133000310569F710930401009303011093020132
:101340000093010185E693E0AFCEC501B4012AE028
:1013500030E040E050E00E94CC0AC9019370D3CD48
:10136000C501B40120ED37E040E050E00E94CC0A16
:101370002370332745E551E0249FC001259F900D40
:10138000349F900D1124BFCD8091E4039091E5032B
:10139000A091E603B091E703A3019201281B390B4A
:1013A0004A0B5B0BDA01C9014497A105B10508F4AA
:1013B000D3CD0E9496009093DF038093DE032091AB
:1013C0000001222309F49DC09093DD038093DC0388
:1013D000109200014091DC035091DD035A83498350
:1013E0002FEF30E0DA010E94F00D2FEF33E040E004
:1013F00050E00E949A0A3093DB032093DA03C9017C
:101400000E949B0224EB30E0A981BA810E94F00D7A
:101410002FEF33E040E050E00E949A0A309302013F
:10142000209301012FB7F8948091D2039091D303B8
:10143000A091D403B091D5032FBF4091D603509112
:10144000D7036091D8037091D903841B950BA60B29
:10145000B70B843F9140A105B10508F449C087E866
:1014600093E00E94E7038091DE039091DF030E94E6
:10147000E9038DE893E00E94E7038091DC039091FB
:10148000DD030E94E9038BE993E00E94E70380916A
:10149000DA039091DB030E94E90384EA93E00E945F
:1014A000E70380910101909102010E94E90386EB1C
:1014B00093E00E94E70380910301909104010E9450
:1014C000E9038EE393E00E94D9032FB7F89480914B
:1014D000D2039091D303A091D403B091D5032FBF31
:1014E0008093D6039093D703A093D803B093D903E6
:1014F0004092E4035092E5036092E6037092E703A2
:101500002BCD2091DC033091DD03220F331F220FFE
:10151000331F820F931F65E070E00E94DC0D709313
:10152000DD036093DC0356CF281739070CF039CD63
:10153000019733CD052E97FB1EF400940E94B10A4B
:1015400057FD07D00E94CC0A07FC03D04EF40C9440
:10155000B10A50954095309521953F4F4F4F5F4FC1
:10156000089590958095709561957F4F8F4F9F4F0F
:1015700008950E94EE0AA59F900DB49F900DA49F20
:10158000800D911D11240895B7FF0C94B90A0E9493
:10159000B90A821B930B0895A1E21A2EAA1BBB1B4A
:1015A000FD010DC0AA1FBB1FEE1FFF1FA217B3072F
:1015B000E407F50720F0A21BB30BE40BF50B661F45
:1015C000771F881F991F1A9469F760957095809509
:1015D00090959B01AC01BD01CF010895A29FB00180
:1015E000B39FC001A39F700D811D1124911DB29F57
:1015F000700D811D1124911D08955058BB27AA27F5
:101600000E94150B0C948F0C0E94810C38F00E94E4
:10161000880C20F039F49F3F19F426F40C947E0CCA
:101620000EF4E095E7FB0C94780CE92F0E94A00CD7
:1016300058F3BA17620773078407950720F079F407
:10164000A6F50C94C20C0EF4E0950B2EBA2FA02D2B
:101650000B01B90190010C01CA01A0011124FF275F
:10166000591B99F0593F50F4503E68F11A16F0405A
:10167000A22F232F342F4427585FF3CF4695379559
:101680002795A795F0405395C9F77EF41F16BA0B1E
:10169000620B730B840BBAF09150A1F0FF0FBB1FCC
:1016A000661F771F881FC2F70EC0BA0F621F731F15
:1016B000841F48F4879577956795B795F7959E3F72
:1016C00008F0B0CF9395880F08F09927EE0F979503
:1016D000879508950E94540C08F481E008950E94B3
:1016E000830B0C948F0C0E94880C58F00E94810C84
:1016F00040F029F45F3F29F00C94780C51110C94C0
:10170000C30C0C947E0C0E94A00C68F39923B1F3D7
:10171000552391F3951B550BBB27AA276217730717
:10172000840738F09F5F5F4F220F331F441FAA1FAB
:10173000A9F335D00E2E3AF0E0E832D09150504067
:10174000E695001CCAF72BD0FE2F29D0660F771F15
:10175000881FBB1F261737074807AB07B0E809F0FB
:10176000BB0B802DBF01FF2793585F4F3AF09E3F80
:10177000510578F00C94780C0C94C30C5F3FE4F3A3
:10178000983ED4F3869577956795B795F7959F5FC3
:10179000C9F7880F911D9695879597F90895E1E00F
:1017A000660F771F881FBB1F621773078407BA076E
:1017B00020F0621B730B840BBA0BEE1F88F7E095C9
:1017C00008950E94E80B6894B1110C94C30C08951D
:1017D0000E94A80C88F09F5798F0B92F9927B7510D
:1017E000B0F0E1F0660F771F881F991F1AF0BA95C5
:1017F000C9F714C0B13091F00E94C20CB1E0089555
:101800000C94C20C672F782F8827B85F39F0B93F46
:10181000CCF3869577956795B395D9F73EF4909577
:101820008095709561957F4F8F4F9F4F0895E894F5
:1018300009C097FB3EF490958095709561957F4F18
:101840008F4F9F4F9923A9F0F92F96E9BB279395C6
:10185000F695879577956795B795F111F8CFFAF4D6
:10186000BB0F11F460FF1BC06F5F7F4F8F4F9F4F07
:1018700016C0882311F096E911C0772321F09EE865
:10188000872F762F05C0662371F096E8862F70E0CB
:1018900060E02AF09A95660F771F881FDAF7880FA5
:1018A0009695879597F90895990F0008550FAA0BFB
:1018B000E0E8FEEF16161706E807F907C0F0121663
:1018C0001306E407F50798F0621B730B840B950B66
:1018D00039F40A2661F0232B242B252B21F40895BB
:1018E0000A2609F4A140A6958FEF811D811D089558
:1018F00097F99F6780E870E060E008959FEF80ECC3
:10190000089500240A941616170618060906089565
:1019100000240A9412161306140605060895092ECB
:101920000394000C11F4882352F0BB0F40F4BF2B3A
:1019300011F460FF04C06F5F7F4F8F4F9F4F08957A
:1019400057FD9058440F551F59F05F3F71F0479570
:10195000880F97FB991F61F09F3F79F08795089555
:10196000121613061406551FF2CF4695F1DF08C074
:10197000161617061806991FF1CF86957105610591
:1019800008940895E894BB2766277727CB0197F939
:1019900008950E94540C08F48FEF08950E94E10C02
:1019A0000C948F0C0E94810C38F00E94880C20F05F
:1019B000952311F00C94780C0C947E0C11240C944B
:1019C000C30C0E94A00C70F3959FC1F3950F50E0DB
:1019D000551F629FF001729FBB27F00DB11D639FE1
:1019E000AA27F00DB11DAA1F649F6627B00DA11D87
:1019F000661F829F2227B00DA11D621F739FB00D2D
:101A0000A11D621F839FA00D611D221F749F33279C
:101A1000A00D611D231F849F600D211D822F762F35
:101A20006A2F11249F5750409AF0F1F088234AF012
:101A3000EE0FFF1FBB1F661F771F881F915050407E
:101A4000A9F79E3F510580F00C94780C0C94C30CC0
:101A50005F3FE4F3983ED4F3869577956795B79505
:101A6000F795E7959F5FC1F7FE2B880F911D96951F
:101A7000879597F908959F930E944A0D0F9007FC50
:101A8000EE5F0C94730D0E94540C880B990B089513
:101A90000C947E0C0E94A80CD8F3E894E0E0BB27DD
:101AA0009F57F0F02AED3FE049EC06C0EE0FBB0F68
:101AB000661F771F881F28F0B23A620773078407F2
:101AC00028F0B25A620B730B840BE3959A9572F768
:101AD000803830F49A95BB0F661F771F881FD2F7A6
:101AE00090480C94890DEF93E0FF07C0A2EA2AED1D
:101AF0003FE049EC5FEB0E94150B0E948F0C0F90AA
:101B0000039401FC9058E8E6F0E00C94950D9F3F9B
:101B100031F0915020F4879577956795B795880FA8
:101B2000911D9695879597F908959F938F937F932D
:101B30006F93FF93EF939B01AC010E94CE0CEF914A
:101B4000FF910E94A90D2F913F914F915F910C94AD
:101B5000CE0CDF93CF931F930F93FF92EF92DF9200
:101B60007B018C01689406C0DA2EEF010E94E10C23
:101B7000FE01E894A5912591359145915591A6F3E3
:101B8000EF010E94150BFE019701A801DA9469F795
:101B9000DF90EF90FF900F911F91CF91DF9108950B
:101BA000991B79E004C0991F961708F0961B881FAF
:101BB0007A95C9F78095089597FB072E16F400943F
:101BC00007D077FD09D00E94F70D07FC05D03EF441
:101BD000909581959F4F0895709561957F4F0895D9
:101BE0000E94EE0AB7FF0895821B930B0895AA1B6B
:101BF000BB1B51E107C0AA1FBB1FA617B70710F0F8
:101C0000A61BB70B881F991F5A95A9F78095909529
:101C1000BC01CD010895EE0FFF1F0590F491E02D5A
:061C20000994F894FFCFC7
:101C2600015A005A0000000000E20142016F012F34
:101C360002A0017E0192010D0A004F4E004F46465A
:101C4600003D3D3D20505241435449434520333ADF
:101C56002050574D204F555450555420434F4E5405
:101C6600524F4C203D3D3D00506F74656E74696F58
:101C76006D6574657220636F6E74726F6C7320622B
:101C86006F7468204C4544206272696768746E659B
:101C9600737320616E6420736572766F20706F7344
:101CA6006974696F6E00436F6D6D616E64733A009F
:101CB6002020276427202D20546F67676C652064D9
:101CC600656D6F206D6F6465002020277327202DBA
:101CD6002053686F77207374617475730020202712
:101CE6006327202D2043656E7465722073657276B6
:101CF6006F00496E697469616C20706F74656E74EB
:101D0600696F6D657465722072656164696E673AA4
:101D1600200044656D6F206D6F6465204F4E202D49
:101D2600204175746F6D61746963207377656570A2
:101D36000044656D6F206D6F6465204F4646202D0B
:101D4600204D616E75616C20636F6E74726F6C00EE
:101D56000A3D3D3D20535441545553205245504F62
:101D66005254203D3D3D00506F74656E74696F6D31
:101D7600657465723A2000202852617729207C20FC
:101D8600002028536D6F6F7468656429004C4544C4
:101D9600204272696768746E6573733A20002F3249
:101DA60035352028006E616E00696E66006F7666B6
:101DB60000252900536572766F20506F7369746928
:101DC6006F6E3A2000C2B020285461726765743A7B
:101DD6002000C2B0290044656D6F204D6F64653ADE
:101DE600200050574D204672657175656E63793ACD
:101DF600207E343930487A20284C4544292C207ED0
:101E06003530487A2028536572766F290043656E0F
:101E1600746572696E6720736572766F2E2E2E005A
:101E2600536572766F2063656E74657265642061B2
:101E360074203930C2B00054657374696E672073BC
:101E46006572766F2066756C6C2072616E67652EA2
:101E56002E2E004D6F76696E6720746F2030C2B0EB
:101E6600004D6F76696E6720746F20313830C2B0CE
:101E76000052657475726E696E6720746F206365B3
:101E86006E74657200536572766F20746573742084
:101E9600636F6D706C6574650044656D6F2070616D
:101EA600747465726E2000506F743A2000207C2096
:101EB600536D6F6F746865643A2000207C204C4532
:101EC600443A2000207C20536572766F205461725C
:101ED6006765743A2000C2B0207C20437572726533
:061EE6006E743A200000BA
:00000001FF
