:100000000C946C000C9455060C942E060C949400E1
:100010000C9494000C9494000C9494000C94940010
:100020000C9494000C9494000C9494000C94940000
:100030000C9494000C9494000C9494000C949400F0
:100040000C94E4050C9494000C94B2050C948C056B
:100050000C9494000C9494000C9494000C949400D0
:100060000C9494000C94940005A84CCDB2D44EB9D5
:100070003836A9020C50B9918688083CA6AAAA2A4B
:10008000BE000000803F00000000240027002A007E
:1000900000000000250028002B00040404040404D0
:1000A0000404020202020202030303030303010227
:1000B00004081020408001020408102001020408F6
:1000C00010200000000800020100000304070000E7
:1000D000000000000000F00C11241FBECFEFD8E09C
:1000E000DEBFCDBF13E0A0E0B1E0EEE5F7E202C075
:1000F00005900D92AE3CB107D9F724E0AEECB3E029
:1001000001C01D92AF38B207E1F710E0CCE6D0E0B5
:1001100004C02197FE010E948A11CB36D107C9F78E
:100120000E947C060C94AD130C940000AF92BF9219
:10013000CF92DF92EF92FF920F931F93CF93DF93B3
:100140006C017B018B01040F151FEB015E01AE18E2
:10015000BF08C017D10759F06991D601ED91FC9104
:100160000190F081E02DC6010995892B79F7C50131
:10017000DF91CF911F910F91FF90EF90DF90CF9083
:10018000BF90AF900895FC01538D448D252F30E032
:10019000842F90E0821B930B541710F0CF96089594
:1001A00001970895FC01918D828D981761F0A28DC1
:1001B000AE0FBF2FB11D5D968C91928D9F5F9F7387
:1001C000928F90E008958FEF9FEF0895FC01918D3D
:1001D000828D981731F0828DE80FF11D858D90E0AA
:1001E00008958FEF9FEF0895FC01918D228D892F47
:1001F00090E0805C9F4F821B91098F73992708952F
:100200008EEE93E00E94F40021E0892B09F420E0B7
:10021000822F089580E090E0892B29F00E94000150
:1002200081110C9400000895FC01A48DA80FB92F32
:10023000B11DA35ABF4F2C91848D90E001968F730E
:100240009927848FA689B7892C93A089B1898C912D
:10025000837080648C93938D848D981306C002887C
:10026000F389E02D80818F7D80830895EF92FF9246
:100270000F931F93CF93DF93EC0181E0888F9B8DC9
:100280008C8D98131AC0E889F989808185FF15C083
:100290009FB7F894EE89FF896083E889F9898081A6
:1002A0008370806480839FBF81E090E0DF91CF9175
:1002B0001F910F91FF90EF900895F62E0B8D10E097
:1002C0000F5F1F4F0F731127E02E8C8D8E110CC006
:1002D0000FB607FCFACFE889F989808185FFF5CF51
:1002E000CE010E941401F1CFEB8DEC0FFD2FF11D1B
:1002F000E35AFF4FF0829FB7F8940B8FEA89FB898E
:1003000080818062CFCFCF93DF93EC01888D8823EB
:10031000B9F0AA89BB89E889F9898C9185FD03C068
:10032000808186FD0DC00FB607FCF7CF8C9185FF4D
:10033000F2CF808185FFEDCFCE010E941401E9CF7D
:10034000DF91CF91089590E0FC01EE53FF4F24918F
:10035000FC01E255FF4F3491FC01E656FF4FE4915A
:10036000EE23C9F0222339F0233001F1A8F4213023
:1003700019F1223029F1F0E0EE0FFF1FE057FF4F97
:10038000A591B4918FB7F894EC91611126C0309586
:100390003E233C938FBF08952730A9F02830C9F041
:1003A000243049F7809180008F7D03C080918000C8
:1003B0008F7780938000DFCF84B58F7784BDDBCFCC
:1003C00084B58F7DFBCF8091B0008F778093B00094
:1003D000D2CF8091B0008F7DF9CF3E2BDACFCF9373
:1003E000DF9390E0FC01E255FF4F249186569F4F2A
:1003F000FC0184918823D1F090E0880F991FFC01C3
:10040000EA57FF4FA591B491FC01E057FF4FC5910A
:10041000D49161110EC09FB7F8948C91E22FE095B2
:100420008E238C932881E223E8839FBFDF91CF91B5
:1004300008958FB7F894EC91E22BEC938FBFF6CF31
:100440001F93CF93DF93182FEB0161E00E94EF0120
:10045000209739F460E0812FDF91CF911F910C94A8
:10046000A301CF3FD10511F461E0F5CFE12FF0E01A
:10047000EE53FF4FE491E33031F140F4E130B1F05D
:10048000E230E1F0C038D1057CF7E4CFE73029F164
:10049000E83059F1E430B1F78091800080628093B8
:1004A0008000D0938B00C0938A0004C084B580681C
:1004B00084BDC7BDDF91CF911F91089584B580623F
:1004C00084BDC8BDF7CF8091800080688093800094
:1004D000D0938900C0938800EDCF8091B0008068F0
:1004E0008093B000C093B300E5CF8091B0008062EC
:1004F0008093B000C093B400DDCF2FB7F894609123
:10050000D7037091D8038091D9039091DA032FBF5C
:1005100008950F931F930E947D026093F6037093DA
:10052000F7038093F8039093F9038EEE93E00E9413
:10053000D20097FF1DC00E947D020091F60310912A
:10054000F7032091F8033091F903601B710B820BC4
:10055000930B0091F2031091F3032091F403309177
:10056000F5036017710782079307F8F28FEF9FEF8B
:100570001F910F910895CF92DF92EF92FF920F9308
:100580001F930E947D020091CE031091CF03209112
:10059000D0033091D1036B017C01C01AD10AE20A69
:1005A000F30A970186010D3211402105310558F0FB
:1005B00021E02093ED036093CE037093CF038093EB
:1005C000D0039093D1031F910F91FF90EF90DF9094
:1005D000CF9008950895FC0101900020E9F731972C
:1005E000AF01481B590BBC018EEE93E00C949600B2
:1005F0008F929F92AF92BF920F931F93CF93DF93EF
:10060000CDB7DEB7A1970FB6F894DEBF0FBECDBF52
:1006100019A2423008F44AE08E010F5D1F4F842E6C
:10062000912CB12CA12CA50194010E94960FE62FCC
:10063000B901CA01EA30F4F4E05DD801EE938D010E
:10064000232B242B252B79F790E080E0109719F0CD
:10065000CD010E94EB02A1960FB6F894DEBF0FBE4B
:10066000CDBFDF91CF911F910F91BF90AF909F9021
:100670008F900895E95CE1CF009711F00C94EB02A4
:1006800090E080E00895CF93DF93D0E0C0E0009742
:1006900019F00E94EB02EC0180E391E00E94EB0272
:1006A0008C0F9D1FDF91CF910895CF92DF92EF9233
:1006B000FF92CF93DF936C01990FEE08FF08F7FECE
:1006C00019C06DE28EEE93E00E943601EC016627C0
:1006D0007727CB016C197D098E099F094AE00E949A
:1006E000F8028C0F9D1FDF91CF91FF90EF90DF906C
:1006F000CF9008954AE0C701B601DF91CF91FF90F6
:10070000EF90DF90CF900C94F802CF93DF930E948C
:100710005503EC0180E391E00E94EB028C0F9D1FDA
:10072000DF91CF91089583E391E00E943C03809193
:10073000DB039091DC030E94550382E491E00E9468
:100740003C03E091DB03F091DC03EE0FFF1FEC5D57
:10075000FE4F808191810E9443038091DB03909141
:10076000DC03059721F486E491E00C94430308959B
:100770004F925F926F927F928F929F92AF92BF92B1
:10078000CF92DF92EF92FF926B017C01AC019B0153
:100790000E94E9108823C1F08CE791E00E94EB02EF
:1007A0007C0180E391E00E94EB028E0D9F1DFF9083
:1007B000EF90DF90CF90BF90AF909F908F907F9001
:1007C0006F905F904F90089546015701E894B7F8F5
:1007D0002FEF3FEF4FE75FE7C501B4010E94E9103B
:1007E00081110DC02FEF3FEF4FE75FE7C501B40167
:1007F0000E94060E18161CF480E891E0CFCF2FEF70
:100800003FEF4FE75FE4C701B6010E94DC10181606
:100810001CF484E891E0C2CF2FEF3FEF4FE75FEC8D
:10082000C701B6010E94060E87FDF3CF20E030E03D
:10083000A901C701B6010E94060EB12CA12C87FFA9
:100840000AC06DE28EEE93E00E9436015C01F7FA79
:10085000F094F7F8F0942AE037ED43EA5BE3C70140
:10086000B6010E94C80F2B013C010E94AD106B0124
:100870007C010E940B0E9B01AC01C301B2010E94DE
:10088000C70F2B013C014AE0C701B6010E94F802E4
:100890007C01EA0CFB1C6EE28EEE93E00E943601B6
:1008A000E80EF91E20E030E040E251E4C301B2015D
:1008B0000E946C0E2B013C010E94AD104B01B12C2B
:1008C000A12C4AE0C501B4010E94F802E80EF91E0D
:1008D000C501B4010E940B0E9B01AC01C301B20122
:1008E0000E94C70F20E030E040E251E40E946C0E0D
:1008F0000E94AD1090E080E04AE00E94F802E80E0D
:10090000F91E4FCFFB0144815581FC0124813581C3
:100910002417350778F080819181009759F0FB0109
:10092000608171816115710529F00E949F1321E09A
:10093000892B09F020E0822F0895FC012481358164
:10094000232B39F421E0FB018081882349F020E04A
:1009500007C0808191810E948F1321E0892BB9F714
:10096000822F08950F931F93CF93DF93EC0188811B
:100970009981009759F02A813B812617370730F07B
:1009800081E0DF91CF911F910F9108958B016F5FEF
:100990007F4F0E94C912009759F0998388831B8367
:1009A0000A832C813D81232B59F7FC011082E8CF6B
:1009B00080E0E7CFCF93DF93EC01888199810097A6
:1009C00011F00E944012198218821D821C821B8223
:1009D0001A82DF91CF910895EF92FF920F931F93A8
:1009E000CF93DF938C017B01EB0109900020E9F7A5
:1009F0002197C61BD70BBE010E94B204811109C00A
:100A0000C801DF91CF911F910F91FF90EF900C944F
:100A1000DA04F801D583C483B70180819181DF9125
:100A2000CF911F910F91FF90EF900C9498139F928C
:100A3000AF92BF92CF92DF92EF92FF920F931F93EC
:100A4000CF93DF93EC016B01DB011496AD90BC906A
:100A5000EE24E394F12CA114B10429F4F12CE12C3F
:100A6000AA24A394B12C198218821B821A821D8297
:100A70001C8262E371E0CE010E94EC04F601048165
:100A80001581E016F10658F5A016B10608F48501A7
:100A9000D601ED91FC911197E00FF11F908010822B
:100AA0008D919C91E80EF91EE114F10471F0F701AB
:100AB00001900020E9F731975F01AE18BF08B5013A
:100AC000CE010E94B204811117C0CE010E94DA0447
:100AD000F60180819181080F191FD8019C92CE01E7
:100AE000DF91CF911F910F91FF90EF90DF90CF900A
:100AF000BF90AF909F900895BD82AC82B70188816E
:100B000099810E949813E4CFFC0180819181009724
:100B100011F00C94401208951F920F920FB60F928D
:100B200011242F933F934F935F936F937F938F93F2
:100B30009F93AF93BF93EF93FF938EEE93E00E944A
:100B40001401FF91EF91BF91AF919F918F917F9190
:100B50006F915F914F913F912F910F900FBE0F902A
:100B60001F9018951F920F920FB60F9211242F937A
:100B70008F939F93EF93FF93E091FE03F091FF0318
:100B80008081E0910404F091050482FD1BC09081F6
:100B9000809107048F5F8F7320910804821741F0C2
:100BA000E0910704F0E0E251FC4F958F8093070439
:100BB000FF91EF919F918F912F910F900FBE0F900A
:100BC0001F9018958081F4CF1F920F920FB60F924D
:100BD00011242F933F938F939F93AF93BF93809153
:100BE000D7039091D803A091D903B091DA03309143
:100BF000D60323E0230F2D3758F50196A11DB11D13
:100C00002093D6038093D7039093D803A093D9035E
:100C1000B093DA038091D2039091D303A091D403CF
:100C2000B091D5030196A11DB11D8093D20390937D
:100C3000D303A093D403B093D503BF91AF919F91F9
:100C40008F913F912F910F900FBE0F901F9018958D
:100C500026E8230F0296A11DB11DD2CF1F920F923D
:100C60000FB60F9211242F933F934F935F936F937F
:100C70007F938F939F93AF93BF93EF93FF93E091F5
:100C80000201F09103010995FF91EF91BF91AF919E
:100C90009F918F917F916F915F914F913F912F9194
:100CA0000F900FBE0F901F9018951F920F920FB6C6
:100CB0000F9211242F933F934F935F936F937F93E2
:100CC0008F939F93AF93BF93EF93FF93E0910001B6
:100CD000F09101010995FF91EF91BF91AF919F9123
:100CE0008F917F916F915F914F913F912F910F90D5
:100CF0000FBE0F901F901895CF93DF93CDB7DEB73F
:100D00002E970FB6F894DEBF0FBECDBF789484B592
:100D1000826084BD84B5816084BD85B5826085BDF7
:100D200085B5816085BD80916E00816080936E0085
:100D30001092810080918100826080938100809177
:100D40008100816080938100809180008160809328
:100D500080008091B10084608093B1008091B000E8
:100D600081608093B00080917A00846080937A00E3
:100D700080917A00826080937A0080917A0081600D
:100D800080937A0080917A00806880937A00109234
:100D9000C100E091FE03F091FF0382E08083E091C7
:100DA000FA03F091FB031082E091FC03F091FD0344
:100DB0008FEC808310920604E0910204F09103040A
:100DC00086E08083E0910004F091010480818061DD
:100DD0008083E0910004F091010480818860808329
:100DE000E0910004F0910104808180688083E091AB
:100DF0000004F091010480818F7D808361E089E0AF
:100E00000E94EF0161E08AE00E94EF0161E08BE067
:100E10000E94EF0161E08DE00E94EF0160E082E05E
:100E20000E94EF018BEB92E090930101809300010F
:100E300080916900836080936900E89A88E891E076
:100E40000E94430381EB91E00E9443038BED91E00C
:100E50000E9443038CEE91E00E94430380E092E005
:100E60000E94430387E192E00E9443038EE292E0F6
:100E70000E94430380E391E00E94EB020E949303EF
:100E800061E08DE00E94A30106E0202E312C882431
:100E90008A94912CB4E6AB2EB12C0E947D022B01DA
:100EA0003C018091ED03882371F18091DB039091E7
:100EB000DC030196B1010E9476119093DC038093CC
:100EC000DB031092E8031092E7038CE592E00E94A6
:100ED0003C038091DB039091DC030E94550382E484
:100EE00091E00E943C03E091DB03F091DC03EE0F04
:100EF000FF1FEC5DFE4F808191810E9443030E94A1
:100F000093031092ED038EEE93E00E94F400892B80
:100F100009F4B9C018861F821A8619861C861B869A
:100F200062E371E0CE0107960E94EC040E94890200
:100F300097FD1BC089831A820B851C850F5F1F4F8D
:100F4000B801CE0107960E94B204882379F32F815D
:100F500038858B859C85BE016F5F7F4F820F931F05
:100F60000E9498131C870B87E1CFCF80D884C114CF
:100F7000D10439F00B851C8576010115110509F0A6
:100F800068C161EE72E0CE0107960E949D04811156
:100F900009C06EE672E0CE0107960E949D04882388
:100FA00009F48EC180E792E00E94430388E892E052
:100FB0000E943C038091DB039091DC030E94550367
:100FC00082E491E00E943C03E091DB03F091DC03BA
:100FD000EE0FFF1FEC5DFE4F808191810E94430365
:100FE00087E992E00E943C038091E1039091E20343
:100FF0000E94550386EA92E00E943C038091E3033D
:101000009091E4030E9455038AEA92E00E943C0317
:101010008091E5039091E6030E9485038EEA92E0B9
:101020000E943C03609104017091050180910601CA
:10103000909107010E94B80380EC92E00E943C036B
:101040008091E7039091E8030E94850381ED92E08F
:101050000E943C030E947D0228EE33E040E050E015
:101060000E94960FCA01B9014AE00E94F8028AED77
:1010700092E00E94430380E391E00E94EB02CE01E4
:1010800007960E9484058091E9039091EA03A0915C
:10109000EB03B091EC03A3019201281B390B4A0B1F
:1010A0005B0BDA01C9014497A105B10528F1009154
:1010B000E7031091E8038091DB039091DC03823019
:1010C000910509F4C5C30CF05AC2009709F4B9C2DE
:1010D000019709F48EC34092E9035092EA036092AB
:1010E000EB037092EC038091E7039091E803019683
:1010F0009093E8038093E703E090E303F090E40328
:101100005FEFE516F10421F01CF0EE24EA94F12CD7
:10111000F7FE02C0F12CE12C0091E5031091E603EB
:101120000F3F110519F014F00FEF10E017FF02C088
:1011300010E000E06091E1037091E2036F3F710500
:1011400019F014F06FEF70E077FF02C070E060E01C
:1011500089E00E942002B7018AE00E942002B801C3
:101160008BE00E9420028091DD039091DE03A0912C
:10117000DF03B091E003A3019201281B390B4A0B56
:101180005B0BDA01C90188389341A105B10508F468
:1011900044C082E593E00E943C038091E10390917A
:1011A000E2030E94550389E593E00E943C0380918D
:1011B000E3039091E4030E94550389E593E00E94C4
:1011C0003C038091E5039091E6030E9455038CE572
:1011D00093E00E943C03E091DB03F091DC03EE0F0F
:1011E000FF1FEC5DFE4F808191810E943C0387E6EA
:1011F00093E00E943C03609104017091050180918D
:101200000601909107010E94B8034092DD035092BD
:10121000DE036092DF037092E003C301B20128EEA7
:1012200033E040E050E00E94960F622F61708DE045
:101230000E94A30140E050E0452B09F42ECE0E940D
:101240000001882309F426CE0E94000020CEED8400
:10125000FE8497012F5F3F4F3E872D87F7018081E6
:10126000082E000C990B0E94FD0D892B81F701506F
:1012700011090C0D1D1DF8018081082E000C990B21
:101280000E94FD0D892B31F00E151F0518F001503D
:101290001109F1CFA8014F5F5F4F4E195F095C87BD
:1012A0004B87CE14DF0420F4B701C6010E948613D9
:1012B000EF81F8858B859C85E80FF91F108261CE40
:1012C00063EE72E0CE0107960E949D048823A9F187
:1012D00020E030E040EC5FE3609104017091050193
:1012E00080910601909107010E946C0E6B017C01B8
:1012F00020E030E040E251E40E94060E87FD06C087
:10130000C12CD12C60E2E62E61E4F62EC0920401DD
:10131000D0920501E0920601F092070185EE92E07D
:101320000E943C03609104017091050180910601C7
:10133000909107010E94B803A2CE6AEF72E0CE013D
:1013400007960E949D04882351F120E030E040EC94
:101350005FE3609104017091050180910601909115
:1013600007010E9434106B017C012DEC3CEC4CEC2D
:101370005DE30E94DC1018163CF05DECC52E5CECC1
:10138000D52EED2C5DE3F52EC0920401D09205011F
:10139000E0920601F09207018CEF92E0C1CF1A8231
:1013A00019821C821B821E821D8261E173E0CE01C4
:1013B00001960E94EC04BE016F5F7F4FCE0107963D
:1013C0000E948204182FCE0101960E9484051123E9
:1013D000B9F18091DB039091DC03059709F04FCEC2
:1013E000BE01695F7F4FCE0101960E94170589817A
:1013F0009A81C12CD12C7601009719F00E94C10D61
:101400006B01CE0101960E948405FFEFCF16D10437
:1014100021F01CF0CC24CA94D12CD7FE02C0D12CD0
:10142000C12CD092E203C092E10383E193E00E94D9
:101430003C038091E1039091E2030E9485031FCE5B
:101440001A8219821C821B821E821D8260E273E056
:10145000CE0101960E94EC04BE016F5F7F4FCE016A
:1014600007960E948204182FCE0101960E948405DF
:101470001123A9F18091DB039091DC03059709F01A
:10148000FECDBE01695F7F4FCE0101960E94170518
:1014900089819A81C12CD12C7601009719F00E9484
:1014A000C10D6B01CE0101960E9484052FEFC2167B
:1014B000D10421F01CF0CC24CA94D12CD7FE02C058
:1014C000D12CC12CD092E403C092E30382E293E0DA
:1014D0000E943C038091E3039091E403AECF1A8213
:1014E00019821C821B821E821D8261E373E0CE0181
:1014F00001960E94EC04BE016F5F7F4FCE010796FC
:101500000E948204182FCE0101960E9484051123A7
:1015100009F4B5CD8091DB039091DC03059709F0C8
:10152000AECDBE01695F7F4FCE0101960E941705C7
:1015300089819A81C12CD12C7601009719F00E94E3
:10154000C10D6B01CE0101960E9484053FEFC316C9
:10155000D10421F01CF0CC24CA94D12CD7FE02C0B7
:10156000D12CC12CD092E603C092E50383E393E033
:101570000E943C038091E5039091E6035ECF8330A7
:10158000910509F4B8C1049709F0A5CD2091040193
:1015900030910501409106015091070160E070E033
:1015A00088EC92E40E9434100E94A610AB01C8019E
:1015B000BA010E947611892B09F08DCD0E94690D28
:1015C00020E031E040E050E00E942D0F7093E203F4
:1015D0006093E1030E94690D20E031E040E050E0BB
:1015E0000E942D0F7093E4036093E3030E94690D42
:1015F00020E031E040E050E00E942D0F7093E603C0
:101600006093E50381E493E00E943C038091E10351
:101610009091E2030E94550386EA92E00E943C0307
:101620008091E3039091E4030E9455038AEA92E0DB
:101630000E943C038091E5039091E6030E9485039C
:101640004ACDB801110F880B990B0E940D0E209105
:1016500004013091050140910601509107010E945B
:101660006C0E2AE037ED43E25CE30E946C0E20E052
:1016700030E044EB53E40E946C0E0E94A610CB01B4
:1016800068E671E00E947611BC01990F880B990BF6
:101690000E940D0E20E030E040E752E40E9434103A
:1016A0006B017C010E94A6108B01072E000C880B99
:1016B000990B0E940D0E9B01AC01C701B6010E945F
:1016C000C70F9B01AC0160E070E080E89FE30E94DF
:1016D000C70F6B017C01AC019B0160E070E080E80A
:1016E0009FE30E94C70F0230110509F456C0ACF405
:1016F0000115110551F101301105E1F19092E2035C
:101700008092E1031092E4031092E30320E030E0C2
:101710004FE753E4C701B6014CC00330110509F48B
:1017200051C00430110551F720E030E04FE753E499
:101730000E946C0E0E94A6107093E2036093E10376
:101740001092E4031092E3034FC09092E203809260
:10175000E10320E030E04FE753E40E946C0E0E946A
:10176000A6107093E4036093E3031092E6031092D3
:10177000E503B1CC20E030E04FE753E4C701B60108
:101780000E946C0E0E94A6107093E2036093E10326
:101790009092E4038092E303E8CF1092E203109268
:1017A000E1039092E4038092E30320E030E04FE70E
:1017B00053E40E946C0E0E94A6107093E60360939F
:1017C000E50389CC1092E2031092E10320E030E0BF
:1017D0004FE753E4C701B6010E946C0E0E94A610A9
:1017E0007093E4036093E3039092E6038092E50331
:1017F00072CCB801110F880B990B0E940D0E20912D
:1018000004013091050140910601509107010E94A9
:101810006C0E2DEC3CEC4CE45DE30E946C0E0E94DF
:10182000E11020E030E040E85FE30E94C80F20E0D4
:1018300030E04FEF52E40E946C0E0E94A6107093AD
:10184000E2036093E1037093E4036093E303B5CF95
:10185000B801110F880B990B0E940D0E2091040105
:101860003091050140910601509107010E946C0ED4
:101870000E94A610CB0164E170E00E947611CB01BA
:1018800068E070E00E9476111092E6031092E50382
:101890001092E4031092E3031092E2031092E1032A
:1018A0008730910508F017CCFC01E75AF34F0C94F0
:1018B0008A11640C6D0CF40B760C600C690C720CC4
:1018C0009092E6038092E5039092E2038092E10316
:1018D00002CC9092E6038092E5039092E40380921A
:1018E000E303F9CB9092E6038092E5039092E40340
:1018F0008092E303E9CFB801110F880B990B0E9486
:101900000D0E209104013091050140910601509186
:1019100007010E946C0E0E94A610CB01B5010E9427
:101920007611FB019C014FEF429FC001439F900D38
:101930001124B5010E9476119B01CF01B1010E94D3
:1019400076118230910571F16CF4009711F10197D5
:1019500009F0C1CBC401821B930B9093E2038093E7
:10196000E10316CF84309105B1F14CF1059709F0F0
:10197000B2CB9092E2038092E1031092E4031092C2
:10198000E303C401821B930B9093E6038093E5036A
:10199000A2CB9092E2038092E1033093E403209380
:1019A000E303E3CE1092E2031092E1039092E4038A
:1019B0008092E3033093E6032093E5038CCB1092EF
:1019C000E2031092E103C401821B930B9093E403A2
:1019D0008093E30309CF3093E2032093E103B0CE79
:1019E000EEEEF3E01382128288EE93E0A0E0B0E026
:1019F00084839583A683B78386E191E09183808376
:101A000085EC90E09587848784EC90E097878687C3
:101A100080EC90E0918B808B81EC90E0938B828BBB
:101A200082EC90E0958B848B86EC90E0978B868B94
:101A3000118E128E138E148E08958F929F92AF92F4
:101A4000BF92CF92DF92EF92FF92CF93DF93EC01A0
:101A5000688179818A819B81611571058105910574
:101A600021F464E279ED8BE597E02DE133EF41E07D
:101A700050E00E942D0F49015A019B01AC01A7EAD9
:101A8000B1E40E944C0F6B017C01ACEEB4EFA501F8
:101A900094010E945A0FC60ED71EE81EF91EF7FECB
:101AA00006C081E0C81AD108E10880E8F80AC882B7
:101AB000D982EA82FB82C701B6019F77DF91CF917D
:101AC000FF90EF90DF90CF90BF90AF909F908F905E
:101AD00008958F929F92AF92BF92CF92DF92EF9232
:101AE000FF92609108017091090180910A01909123
:101AF0000B01611571058105910521F464E279ED11
:101B00008BE597E02DE133EF41E050E00E942D0F8F
:101B100049015A019B01AC01A7EAB1E40E944C0FB4
:101B20006B017C01ACEEB4EFA50194010E945A0F49
:101B3000C60ED71EE81EF91EF7FE06C081E0C81AC1
:101B4000D108E10880E8F80AC0920801D0920901A2
:101B5000E0920A01F0920B01C701B6019F77FF9056
:101B6000EF90DF90CF90BF90AF909F908F900895AF
:101B7000609308017093090180930A0190930B010F
:101B800008951F93FC0199278827BC01E8941191BF
:101B90001032E9F3193010F01E30C8F31B3251F047
:101BA0001D3249F4689406C00E94E80D610F711D52
:101BB000811D911D119110531A30B0F33EF4909590
:101BC0008095709561957F4F8F4F9F4F1F9108951E
:101BD000592F482F372F262F660F771F881F991FE1
:101BE000660F771F881F991F620F731F841F951F31
:101BF000660F771F881F991F089591110C94D90EB5
:101C0000803219F089508550C8F708950E94480E17
:101C100008F481E00895E89409C097FB3EF490959C
:101C20008095709561957F4F8F4F9F4F9923A9F0B5
:101C3000F92F96E9BB279395F69587957795679544
:101C4000B795F111F8CFFAF4BB0F11F460FF1BC088
:101C50006F5F7F4F8F4F9F4F16C0882311F096E91B
:101C600011C0772321F09EE8872F762F05C06623C9
:101C700071F096E8862F70E060E02AF09A95660F82
:101C8000771F881FDAF7880F9695879597F908953B
:101C9000990F0008550FAA0BE0E8FEEF161617067D
:101CA000E807F907C0F012161306E407F50798F0E5
:101CB000621B730B840B950B39F40A2661F0232BFE
:101CC000242B252B21F408950A2609F4A140A6957A
:101CD0008FEF811D811D08950E947F0E0C94F30EDD
:101CE0000E94E50E38F00E94EC0E20F0952311F0D2
:101CF0000C94DC0E0C94E20E11240C94270F0E941D
:101D0000040F70F3959FC1F3950F50E0551F629F2C
:101D1000F001729FBB27F00DB11D639FAA27F00D44
:101D2000B11DAA1F649F6627B00DA11D661F829F6B
:101D30002227B00DA11D621F739FB00DA11D621F50
:101D4000839FA00D611D221F749F3327A00D611D6D
:101D5000231F849F600D211D822F762F6A2F11244F
:101D60009F5750409AF0F1F088234AF0EE0FFF1F82
:101D7000BB1F661F771F881F91505040A9F79E3FD9
:101D8000510580F00C94DC0E0C94270F5F3FE4F3B8
:101D9000983ED4F3869577956795B795F795E7952F
:101DA0009F5FC1F7FE2B880F911D9695879597F938
:101DB000089599278827089597F99F6780E870E02C
:101DC00060E008959FEF80EC089500240A941616B1
:101DD000170618060906089500240A941216130619
:101DE000140605060895092E0394000C11F48823A7
:101DF00052F0BB0F40F4BF2B11F460FF04C06F5FC3
:101E00007F4F8F4F9F4F089557FD9058440F551F98
:101E100059F05F3F71F04795880F97FB991F61F06C
:101E20009F3F79F087950895121613061406551FE3
:101E3000F2CF4695F1DF08C0161617061806991F4F
:101E4000F1CF86957105610508940895E894BB2744
:101E500066277727CB0197F90895052E97FB1EF487
:101E600000940E94440F57FD07D00E94960F07FC74
:101E700003D04EF40C94440F509540953095219525
:101E80003F4F4F4F5F4F08959095809570956195A6
:101E90007F4F8F4F9F4F08950E94B80FA59F900DC1
:101EA000B49F900DA49F800D911D11240895B7FF3C
:101EB0000C944C0F0E944C0F821B930B08952F9291
:101EC0003F924F925F926F927F928F929F92AF92CA
:101ED000BF92CF92DF92EF92FF920F931F93CF9317
:101EE000DF93CDB7DEB7CA1BDB0B0FB6F894DEBFAE
:101EF0000FBECDBF09942A88398848885F846E84D4
:101F00007D848C849B84AA84B984C884DF80EE801D
:101F1000FD800C811B81AA81B981CE0FD11D0FB626
:101F2000F894DEBF0FBECDBFED010895A1E21A2ED9
:101F3000AA1BBB1BFD010DC0AA1FBB1FEE1FFF1F6D
:101F4000A217B307E407F50720F0A21BB30BE40BBD
:101F5000F50B661F771F881F991F1A9469F7609504
:101F60007095809590959B01AC01BD01CF010895BE
:101F7000A29FB001B39FC001A39F700D811D1124CA
:101F8000911DB29F700D811D1124911D089550580F
:101F9000BB27AA270E94DF0F0C94F30E0E94E50EC8
:101FA00038F00E94EC0E20F039F49F3F19F426F42B
:101FB0000C94E20E0EF4E095E7FB0C94DC0EE92F96
:101FC0000E94040F58F3BA17620773078407950736
:101FD00020F079F4A6F50C94260F0EF4E0950B2E64
:101FE000BA2FA02D0B01B90190010C01CA01A0016B
:101FF0001124FF27591B99F0593F50F4503E68F1C6
:102000001A16F040A22F232F342F4427585FF3CF06
:10201000469537952795A795F0405395C9F77EF4D7
:102020001F16BA0B620B730B840BBAF09150A1F020
:10203000FF0FBB1F661F771F881FC2F70EC0BA0FA6
:10204000621F731F841F48F4879577956795B7952E
:10205000F7959E3F08F0B0CF9395880F08F0992729
:10206000EE0F9795879508950E9448100C94F30EF3
:102070000E94EC0E58F00E94E50E40F029F45F3FFC
:1020800029F00C94DC0E51110C94270F0C94E20EE5
:102090000E94040F68F39923B1F3552391F3951B24
:1020A000550BBB27AA2762177307840738F09F5F79
:1020B0005F4F220F331F441FAA1FA9F335D00E2EE6
:1020C0003AF0E0E832D091505040E695001CCAF753
:1020D0002BD0FE2F29D0660F771F881FBB1F261716
:1020E00037074807AB07B0E809F0BB0B802DBF01ED
:1020F000FF2793585F4F3AF09E3F510578F00C94BC
:10210000DC0E0C94270F5F3FE4F3983ED4F38695E2
:1021100077956795B795F7959F5FC9F7880F911DDC
:102120009695879597F90895E1E0660F771F881FC8
:10213000BB1F621773078407BA0720F0621B730B7B
:10214000840BBA0BEE1F88F7E09508950E94AD103E
:102150006894B1110C94270F08950E940C0F88F019
:102160009F5798F0B92F9927B751B0F0E1F0660F5B
:10217000771F881F991F1AF0BA95C9F714C0B1309C
:1021800091F00E94260FB1E008950C94260F672F5E
:10219000782F8827B85F39F0B93FCCF386957795CB
:1021A0006795B395D9F73EF49095809570956195B4
:1021B0007F4F8F4F9F4F08950E94480E08F48FEF76
:1021C00008959F930E94F0100F9007FCEE5F0C940F
:1021D00019110E94480E880B990B08950C94E20E79
:1021E0000E940C0FD8F3E894E0E0BB279F57F0F073
:1021F0002AED3FE049EC06C0EE0FBB0F661F771FCC
:10220000881F28F0B23A62077307840728F0B25A91
:10221000620B730B840BE3959A9572F7803830F458
:102220009A95BB0F661F771F881FD2F790480C94B2
:102230002F11EF93E0FF07C0A2EA2AED3FE049EC3F
:102240005FEB0E94DF0F0E94F30E0F90039401FCDE
:102250009058E8E6F0E00C943B119F3F31F091502C
:1022600020F4879577956795B795880F911D96957A
:10227000879597F908959F938F937F936F93FF931B
:10228000EF939B01AC010E946C0EEF91FF910E94B5
:102290004F112F913F914F915F910C946C0EDF93F2
:1022A000CF931F930F93FF92EF92DF927B018C01EC
:1022B000689406C0DA2EEF010E947F0EFE01E894BA
:1022C000A5912591359145915591A6F3EF010E9475
:1022D000DF0FFE019701A801DA9469F7DF90EF9014
:1022E000FF900F911F91CF91DF91089597FB072EDB
:1022F00016F4009407D077FD09D00E94901107FCD6
:1023000005D03EF4909581959F4F08957095619505
:102310007F4F0895EE0FFF1F0590F491E02D099473
:10232000AA1BBB1B51E107C0AA1FBB1FA617B707FB
:1023300010F0A61BB70B881F991F5A95A9F7809517
:102340009095BC01CD0108950F931F93CF93DF9318
:102350008230910510F482E090E0E0918D04F091DC
:102360008E0430E020E0B0E0A0E0309799F4211531
:10237000310509F44AC0281B390B24303105D8F542
:102380008A819B816115710589F1FB0193838283A9
:10239000FE0111C040815181028113814817590704
:1023A000E0F04817590799F4109761F012960C93D2
:1023B000129713961C933296CF01DF91CF911F9104
:1023C0000F91089500938D0410938E04F4CF21157E
:1023D000310551F04217530738F0A901DB019A018A
:1023E000BD01DF01F801C1CFEF01F9CF90938E0459
:1023F00080938D04CDCFFE01E20FF31F8193919363
:102400002250310939832883D7CF20918B04309112
:102410008C04232B41F420910E0130910F01309355
:102420008C0420938B0420910C0130910D01211517
:10243000310541F42DB73EB7409110015091110183
:10244000241B350BE0918B04F0918C04E217F30709
:10245000A0F42E1B3F0B2817390778F0AC014E5F14
:102460005F4F2417350748F04E0F5F1F50938C04C1
:1024700040938B04819391939FCFF0E0E0E09CCF59
:10248000CF93DF930097E9F0FC0132971382128219
:10249000A0918D04B0918E04ED0130E020E0109702
:1024A000A1F420813181820F931F20918B04309100
:1024B0008C042817390709F061C0F0938C04E0936D
:1024C0008B04DF91CF910895EA01CE17DF07E8F57D
:1024D0004A815B819E0141155105B1F7E901FB83FA
:1024E000EA8349915991C40FD51FEC17FD0761F498
:1024F000808191810296840F951FE90199838883D9
:10250000828193819B838A83F0E0E0E012968D9133
:102510009C9113970097B9F52D913C911197CD019E
:102520000296820F931F20918B0430918C04281700
:10253000390739F6309751F510928E0410928D04B8
:10254000B0938C04A0938B04BCCFD383C28340810F
:102550005181840F951FC817D90761F44E5F5F4FF3
:1025600088819981480F591F518340838A819B81BB
:10257000938382832115310509F0B0CFF0938E0447
:10258000E0938D049ECFFD01DC01C0CF1382128247
:10259000D7CFB0E0A0E0EFECF2E10C94610F8C013A
:1025A000009751F4CB010E94A4118C01C801CDB752
:1025B000DEB7E0E10C947D0FFC01E60FF71F9C01F4
:1025C00022503109E217F30708F49DC0D901CD91DB
:1025D000DC911197C617D70798F0C530D10530F3B5
:1025E000CE0104978617970708F3C61BD70B2297CF
:1025F000C193D1936D937C93CF010E944012D6CFAB
:102600005B01AC1ABD0A4C018C0E9D1EA0918D047D
:10261000B0918E04512C412CF12CE12C109731F506
:1026200080918B0490918C048815990509F05CC009
:102630004616570608F058C080910C0190910D0184
:10264000009741F48DB79EB7409110015091110150
:10265000841B950BE817F90708F055C0F0938C041C
:10266000E0938B04F90171836083A0CF8D919C91DD
:10267000119712966C90129713967C901397A81549
:10268000B90559F56C0142E0C40ED11CCA14DB0433
:1026900020F1AC014A195B09DA011296159780F016
:1026A0006282738251834083D9016D937C93E114DC
:1026B000F10471F0D7011396FC93EE93129776CF45
:1026C00022968C0F9D1FF90191838083F301EFCF38
:1026D000F0938E04E0938D0469CF4816590608F4F0
:1026E0002C017D01D3019ACFCB010E94A4117C0162
:1026F000009749F0AE01B8010E948613C8010E94FC
:102700004012870153CF10E000E050CFFB01DC0105
:1027100002C001900D9241505040D8F70895FB013E
:10272000DC018D91019080190110D9F3990B089566
:10273000FB01DC0101900D920020E1F70895FB01FF
:10274000DC014150504030F08D910190801919F416
:0E2750000020B9F7881B990B0895F894FFCF6D
:10275E00EA02EA020000803F0100000000008F0440
:10276E0080000000000036019600C3008301F400D3
:10277E00D200E6007203800390039D03B003BE03F4
:10278E000D0A0043757272656E74206D6F64653A42
:10279E002000202D20004D616E75616C206D6F64E0
:1027AE00653A20557365202772232323272C202773
:1027BE0067232323272C2027622323232720746FAC
:1027CE002073657420636F6C6F7273006E616E00A0
:1027DE00696E66006F7666003D3D3D205052414366
:1027EE005449434520343A20524742204C45442018
:1027FE00434F4C4F52204D4958494E47203D3D3D89
:10280E00004D6F646520627574746F6E206379631A
:10281E006C6573207468726F75676820636F6C6F78
:10282E0072207061747465726E73005365726961A3
:10283E006C20636F6D6D616E64733A002020277398
:10284E0027202D2053686F77207374617475730081
:10285E002020272B27202D20496E6372656173651A
:10286E00207370656564002020272D27202D2044BD
:10287E006563726561736520737065656400202001
:10288E0027722F672F6227202B206E756D6265725F
:10289E00202D20536574206D616E75616C20636F01
:1028AE006C6F722028302D32353529004D6F6465DE
:1028BE00206368616E67656420746F3A2000530070
:1028CE000A3D3D3D20524742204C45442053544141
:1028DE00545553203D3D3D0043757272656E742014
:1028EE004D6F64653A20005247422056616C756503
:1028FE00733A20523D0020473D0020423D00416E7C
:10290E00696D6174696F6E2053706565643A20005D
:10291E00416E696D6174696F6E20537465703A20F3
:10292E0000557074696D653A2000207365636F6E93
:10293E006473002B00537065656420696E63726565
:10294E006173656420746F3A20002D0053706565C5
:10295E00642064656372656173656420746F3A20E8
:10296E000072005265642073657420746F3A200003
:10297E006700477265656E2073657420746F3A2028
:10298E00006200426C75652073657420746F3A2086
:10299E000052616E646F6D20636F6C6F723A2052DD
:1029AE003D005247423A2028002C200029207C204E
:1029BE004D6F64653A2000207C2053706565643A43
:1029CE0020005261696E626F77204379636C6500F7
:1029DE00427265617468696E672057686974650034
:1029EE00436F6C6F72205374726F626500536D6F1C
:1029FE006F7468205472616E736974696F6E7300C0
:102A0E0052616E646F6D20436F6C6F7273004D6117
:0E2A1E006E75616C20436F6E74726F6C0000F9
:00000001FF
