:100000000C945E000C9486000C9486000C94860080
:100010000C9486000C9486000C9486000C94860048
:100020000C9486000C9486000C9486000C94860038
:100030000C9486000C9486000C9486000C94860028
:100040000C94A6030C9486000C9474030C944E0339
:100050000C9486000C9486000C9486000C94860008
:100060000C9486000C948600000000080002010039
:100070000003040700000000000000000000000072
:10008000250028002B0000000000240027002A0083
:10009000040404040404040402020202020203032E
:1000A0000303030301020408102040800102040836
:1000B0001020010204081020F003200911241FBEA3
:1000C000CFEFD8E0DEBFCDBF27E0A4E6B6E001C0A9
:1000D0001D92AE31B207E1F716E0A0E0B1E0EEEF1D
:1000E000F7E102C005900D92A436B107D9F710E0F0
:1000F000CDE5D0E004C02197FE010E94F209CC3585
:10010000D107C9F70E942B040C94F20B0C94000049
:1001100090E0FC01EC55FF4F249180579F4FFC016C
:100120008491882399F090E0880F991FFC01EA5789
:10013000FF4FA591B491FC01E458FF4F8591949134
:100140008FB7F894EC91E22BEC938FBF0895AF92A8
:10015000BF92CF92DF92EF92FF920F931F93CF93B4
:10016000DF936C017B018B01040F151FEB015E0116
:10017000AE18BF08C017D10759F06991D601ED91AB
:10018000FC910190F081E02DC6010995892B79F74A
:10019000C501DF91CF911F910F91FF90EF90DF90FC
:1001A000CF90BF90AF900895FC01538D448D252FC3
:1001B00030E0842F90E0821B930B541710F0CF9601
:1001C000089501970895FC01918D828D981761F033
:1001D000A28DAE0FBF2FB11D5D968C91928D9F5F4A
:1001E0009F73928F90E008958FEF9FEF0895FC0129
:1001F000918D828D981731F0828DE80FF11D858DDC
:1002000090E008958FEF9FEF0895FC01918D228D6E
:10021000892F90E0805C9F4F821B91098F739927F3
:10022000089587E796E00E94050121E0892B09F4F3
:1002300020E0822F089580E090E0892B29F00E9431
:10024000110181110C9400000895FC01A48DA80FE8
:10025000B92FB11DA35ABF4F2C91848D90E0019608
:100260008F739927848FA689B7892C93A089B18928
:100270008C91837080648C93938D848D981306C0C9
:100280000288F389E02D80818F7D80830895EF922D
:10029000FF920F931F93CF93DF93EC0181E0888F40
:1002A0009B8D8C8D98131AC0E889F989808185FF10
:1002B00015C09FB7F894EE89FF896083E889F989B2
:1002C00080818370806480839FBF81E090E0DF91B4
:1002D000CF911F910F91FF90EF900895F62E0B8D07
:1002E00010E00F5F1F4F0F731127E02E8C8D8E11C2
:1002F0000CC00FB607FCFACFE889F989808185FF29
:10030000F5CFCE010E942501F1CFEB8DEC0FFD2F33
:10031000F11DE35AFF4FF0829FB7F8940B8FEA89E3
:10032000FB8980818062CFCFCF93DF93EC01888DF2
:100330008823B9F0AA89BB89E889F9898C9185FD60
:1003400003C0808186FD0DC00FB607FCF7CF8C91EE
:1003500085FFF2CF808185FFEDCFCE010E94250180
:10036000E9CFDF91CF91089590E0FC01E859FF4F6C
:100370002491FC01EC55FF4F3491FC01E057FF4FF5
:10038000E491EE23C9F0222339F0233001F1A8F4DF
:10039000213019F1223029F1F0E0EE0FFF1FE4586F
:1003A000FF4FA591B4918FB7F894EC91611126C0DD
:1003B00030953E233C938FBF08952730A9F0283015
:1003C000C9F0243049F7809180008F7D03C080916F
:1003D00080008F7780938000DFCF84B58F7784BDD6
:1003E000DBCF84B58F7DFBCF8091B0008F7780937A
:1003F000B000D2CF8091B0008F7DF9CF3E2BDACF05
:100400003FB7F8948091650690916606A0916706C3
:10041000B091680626B5A89B05C02F3F19F001963C
:10042000A11DB11D3FBFBA2FA92F982F8827BC014E
:10043000CD01620F711D811D911D42E0660F771F76
:10044000881F991F4A95D1F708958F929F92AF9276
:10045000BF92CF92DF92EF92FF924B015C010E941C
:1004600000026B017C010E9400026C197D098E095B
:100470009F09683E734081059105A8F321E0821A27
:100480009108A108B10888EEC80E83E0D81EE11CCF
:10049000F11C81149104A104B10429F7FF90EF909D
:1004A000DF90CF90BF90AF909F908F900895FC0108
:1004B00001900020E9F73197AF01481B590BBC01AF
:1004C00087E796E00C94A7008BE391E00C94570229
:1004D0008F929F92AF92BF920F931F93CF93DF9310
:1004E000CDB7DEB7A1970FB6F894DEBF0FBECDBF74
:1004F00019A2423008F44AE08E010F5D1F4F842E8E
:10050000912CB12CA12CA50194010E94BC09E62FCD
:10051000B901CA01EA30F4F4E05DD801EE938D012F
:10052000232B242B252B79F790E080E0109719F0EE
:10053000CD010E945702A1960FB6F894DEBF0FBE00
:10054000CDBFDF91CF911F910F91BF90AF909F9042
:100550008F900895E95CE1CFCF92DF92EF92FF9206
:10056000CF93DF936B017C016DE287E796E00E94F9
:100570004701EC0166277727CB016C197D098E09AD
:100580009F094AE00E9468028C0F9D1FDF91CF9166
:10059000FF90EF90DF90CF900895CF93DF930E946C
:1005A0005702EC010E9464028C0F9D1FDF91CF91D6
:1005B00008950C945702CF93DF93BC01990F880BD9
:1005C000990B97FF0AC00E94AC02EC010E946402E2
:1005D0008C0F9D1FDF91CF9108954AE00E94680221
:1005E000F4CFBC01990F880B990B97FD0C94AC02CA
:1005F0004AE00C9468020F931F93CF93DF93EC01B2
:1006000088819981009759F02A813B812617370705
:1006100030F081E0DF91CF911F910F9108958B0110
:100620006F5F7F4F0E941D0B009759F0998388835D
:100630001B830A832C813D81232B59F7FC011082F7
:10064000E8CF80E0E7CFEF92FF920F931F93CF9315
:10065000DF93EC017B018A01BA010E94FB02288131
:100660003981811114C02115310519F0C9010E9489
:10067000940A198218821D821C821B821A82CE0162
:10068000DF91CF911F910F91FF90EF9008951D83FF
:100690000C83B701C9010E94EB0BF1CF1F920F929F
:1006A0000FB60F9211242F933F934F935F936F9345
:1006B0007F938F939F93AF93BF93EF93FF9387E7BE
:1006C00096E00E942501FF91EF91BF91AF919F911C
:1006D0008F917F916F915F914F913F912F910F90EB
:1006E0000FBE0F901F9018951F920F920FB60F928A
:1006F00011242F938F939F93EF93FF93E09187069D
:10070000F09188068081E0918D06F0918E0682FD41
:100710001BC09081809190068F5F8F73209191060E
:10072000821741F0E0919006F0E0E958F94F958F7B
:1007300080939006FF91EF919F918F912F910F9051
:100740000FBE0F901F9018958081F4CF1F920F92CB
:100750000FB60F9211242F933F938F939F93AF93D4
:10076000BF938091690690916A06A0916B06B09143
:100770006C063091640623E0230F2D3758F501965F
:10078000A11DB11D209364068093690690936A06AB
:10079000A0936B06B0936C068091650690916606F7
:1007A000A0916706B09168060196A11DB11D8093C6
:1007B000650690936606A0936706B0936806BF919E
:1007C000AF919F918F913F912F910F900FBE0F90FE
:1007D0001F90189526E8230F0296A11DB11DD2CFB8
:1007E000E7E7F6E01382128288EE93E0A0E0B0E043
:1007F00084839583A683B7838DE291E09183808380
:1008000085EC90E09587848784EC90E097878687D5
:1008100080EC90E0918B808B81EC90E0938B828BCD
:1008200082EC90E0958B848B86EC90E0978B868BA6
:10083000118E128E138E148EE4E1F7E01182108275
:10084000138212821582148250E040E06DE371E061
:10085000CF010C942303CF93DF93CDB7DEB72E9750
:100860000FB6F894DEBF0FBECDBF789484B582601A
:1008700084BD84B5816084BD85B5826085BD85B544
:10088000816085BD80916E00816080936E001092C2
:10089000810080918100826080938100809181003D
:1008A00081608093810080918000816080938000CE
:1008B0008091B10084608093B1008091B00081602C
:1008C0008093B00080917A00846080937A00809158
:1008D0007A00826080937A0080917A0081608093B0
:1008E0007A0080917A00806880937A001092C1002B
:1008F000E0918706F091880682E08083E09183068C
:10090000F09184061082E0918506F09186068FECC6
:10091000808310928F06E0918B06F0918C0686E022
:100920008083E0918906F0918A06808180618083CE
:10093000E0918906F0918A06808188608083E09149
:100940008906F0918A06808180688083E09189061B
:10095000F0918A0680818F7D808357E1E52E51E0FA
:10096000F52E67E0262E61E0362EF1011081F2E0CF
:100970002F0E311C812F0E94880060E0812F0E9481
:10098000B401E214F30489F749E2C42E41E0D42E05
:1009900001E211E0F801F0800E5F1F4F8F2D0E94E1
:1009A000880060E08F2D0E94B401C016D10691F737
:1009B0008DE00E94880061E08DE00E94B4018CE42B
:1009C00091E00E94CD028AE791E00E94CD020E9450
:1009D00064028CE494E00E94CD028FE991E00E94D1
:1009E000CD028CEC91E00E94CD0282EE91E00E945B
:1009F000CD028FEF91E00E94CD028DE192E00E9446
:100A0000CD028BE392E00E94CD0283E592E00E944A
:100A1000CD0287E692E00E94CD020E94640289E73F
:100A200092E00E94CD0282ED94E090937206809352
:100A300071068DE992E00E94CD0238EE432E33E03C
:100A4000532E612C712C8FB7F8948090690690908A
:100A50006A06A0906B06B0906C068FBF87E796E0A1
:100A60000E940501892B09F4B9C287E796E00E942C
:100A7000E3008A3019F08D3009F089C240911807DF
:100A8000509119074115510549F31A8219821C82A8
:100A90001B821E821D8260911407709115076115DB
:100AA000710521F0CE0101960E942303C980DA80EE
:100AB000C114D10431F00D811E817601011511059B
:100AC000B9F409811A810115110509F448C0F8012A
:100AD00081918F01882309F442C0082E000C990BE4
:100AE0000E94DA0BF80131978083F1CFEF80F88410
:100AF00097012F5F3F4F38872F83F7018081082EA2
:100B0000000C990B0E946509892B81F7015011098E
:100B10000C0D1D1DF8018081082E000C990B0E9400
:100B20006509892B31F00E151F0518F001501109C8
:100B3000F1CFA8014F5F5F4F4E195F095E834D8370
:100B4000CE14DF0420F4B701C6010E94E20BE98154
:100B5000FA818D819E81E80FF91F1082B2CF2D811D
:100B60003E812115310509F4A3C089819A81213084
:100B7000310509F0EEC1009709F4E8C1FC0180815C
:100B8000883609F4AAC1B4F4833609F4A0C08436C7
:100B900009F4B7C0823609F0D9C18091000191E013
:100BA0008927809300018DEE92E00E94D902809106
:100BB0000001A2C0843709F4B4C08A3709F490C098
:100BC000833709F0C3C18EE793E00E94CD0286E926
:100BD00093E00E94D90280917106909172060E9462
:100BE000DB0287EA93E00E94D9028091000188230A
:100BF00009F46AC185E491E00E94CD0289EB93E09B
:100C00000E94D90280916E06882309F460C185E4B0
:100C100091E00E94CD0289EC93E00E94D90280917C
:100C20006D06882309F456C185E491E00E94CD0247
:100C300083EE93E00E94D90285E090E00E94F102E9
:100C400086EF93E00E94CD028AEF93E00E94D902E2
:100C500084EF91E00E94F1028EE094E00E94CD02C8
:100C600082E194E00E94D90280916F069091700613
:100C70000E94DB0282E294E00E94D9022FB7F8942E
:100C80006091690670916A0680916B0690916C067E
:100C90002FBFA30192010E94BC09CA01B9014AE019
:100CA0000E9468028BE294E00E94CD020E946402DE
:100CB00089819A81009711F00E94940A50E040E0E7
:100CC0006DE371E084E197E00E942303C7CE1092A8
:100CD00072061092710683EB92E00E94CD02E8CF7B
:100CE00080916E0691E0892780936E0683EC92E0F6
:100CF0000E94D90280916E06882381F08EE391E0F4
:100D0000ECCF80916D0691E0892780936D0683ED8D
:100D100092E00E94D90280916D06EECF81E491E0CD
:100D2000DCCF87EF92E00E94CD0221E231E03887EC
:100D30002F83F12CE12C8AE193E00E94D9023FEF4E
:100D4000E31AF30AC7010E94F10280E593E00E94D2
:100D5000CD0260E08BE00E94B40160E08CE00E9474
:100D6000B40160E08EE00E94B40160E08FE00E9478
:100D7000B40147E151E05C874B8710E000E0EB8570
:100D8000FC858191FC87EB8727E031E03A87298752
:100D900027E0C22ED12C482F50E05E874D87E98591
:100DA000FA8580813296FA87E9876D857E850C2CDD
:100DB00002C0759567950A94E2F761700E94B401CC
:100DC000F1E0CF1AD10858F7EF81F885D08061E0C3
:100DD0008D2D0E94B40189E293E00E94D902C801DE
:100DE0000E94DB0264EF71E080E090E00E94250247
:100DF0000F5F1F4F0A30110509F0C1CF60E08D2D44
:100E00000E94B4012F8138852E5F3F4F38872F8392
:100E100034E0E316F10409F08ECF85E393E00E94FD
:100E2000CD0260E08BE00E94B40160E08CE00E94A3
:100E3000B40160E08EE00E94B40160E08FE00E94A7
:100E4000B40107E011E0F80180810E5F1F4F61E0FF
:100E50000E94B40125E131E020173107A1F761E0DC
:100E60008BE00E94B40161E08CE00E94B40161E07B
:100E70008EE00E94B40161E08FE00E94B40160ED59
:100E800077E080E090E00E94250260E08BE00E9425
:100E9000B40160E08CE00E94B40160E08EE00E944A
:100EA000B40160E08FE00E94B40107E011E0F801B6
:100EB00080810E5F1F4F60E00E94B4012016310652
:100EC000B1F784E593E009CF89E491E095CE89E418
:100ED00091E09FCE89E491E0A9CE84E394E00E9462
:100EE000CD0282E494E00E94CD0286E594E00E9467
:100EF000CD0283E794E00E94CD0288E994E00E944D
:100F0000CD028BEB94E00E94CD0287EE94E00E942C
:100F1000CD028BE095E00E94CD0286E395E00E9431
:100F2000CD0288E595E00E94CD020E94640285E72B
:100F300095E00E94CD028FE795E00E94CD028AE9FC
:100F400095E00E94CD0282ED95E0AECE8AE096E07B
:100F5000C4CE0097C1F00E9429098BE396E060316E
:100F6000F7E27F0708F0B9CE7093720660937106BE
:100F70008EE296E00E94D9028091710690917206ED
:100F80000E94DB0295CE60E070E0CB01E6CF8032BC
:100F90000CF464CD89831A82009118071091190707
:100FA0000F5F1F4FB80184E197E00E94FB02882386
:100FB00009F454CD2091140730911507809118073A
:100FC00090911907BE016F5F7F4F820F931F0E94A0
:100FD000EB0B109319070093180740CD809173060F
:100FE00090917406A0917506B0917606A5019401C2
:100FF000281B390B4A0B5B0BDA01C9010297A105CB
:10100000B10508F463C0D090000160E08BE0DD2002
:1010100009F446C00E94B40160E08CE00E94B40173
:1010200060E08EE00E94B40160E08FE00E94B401B5
:10103000E0917106F09172062AE030E0CF01B9012B
:101040000E94A8098C0180916F06909170068130F2
:10105000910509F477C034F4892B09F44FC010E0EE
:1010600000E0A2C08230910509F4A2C00397B9F74D
:1010700020916D06222309F4AAC02FB7F89460913D
:10108000690670916A0680916B0690916C062FBF7D
:101090002CE231E040E050E00E94BC09217097C092
:1010A0000E94B40160E08CE00E94B40160E08EE038
:1010B0000E94B40160E08FE00E94B4018092730648
:1010C00090927406A0927506B0927606C501B4019E
:1010D000A30192010E94BC09622F61708DE00E9401
:1010E000B40180E090E0892B09F4ADCC0E9411019D
:1010F000882309F4A8CC0E940000A5CCCF0168EE9B
:1011000073E00E94A809CB01B9010E94A8098C01D3
:1011100020916E06211148C0181619060CF457C00C
:10112000E83EF3400CF053C080916F06909170063A
:10113000019664E070E00E94A80990937006809385
:101140006F06BCCFCF0164E670E00E94A809CB0116
:10115000B9010E94A8097C018C0180916E06811161
:1011600025C01E141F0434F0DD24D394E436F105A9
:101170000CF4D12C80916D06882399F02FB7F89448
:101180006091690670916A0680916B0690916C0679
:101190002FBF24EF31E040E050E00E94BC0920FD69
:1011A00047C0DD2009F4C0CF20E011C0D82EE2CF27
:1011B000CB01B9010E94A8098C0120916E06211172
:1011C000F3CF181619061CF03A970CF4ADCFF801BE
:1011D000E95EFE4F80812111816097E0E92E91E068
:1011E000F92E07E010E0C82ED12CF7018081F2E043
:1011F000EF0EF11CB601002E02C0759567950A949A
:10120000E2F761700E94B4010150110970F7E0919A
:101210006F06F0917006EE0FFF1FEF5DFE4F61E06D
:1012200080810E94B4018BEC97E00197F1F77CCFAD
:10123000DD2009F479CFF701E95EFE4F8081CCCF44
:101240008091140790911507009711F00C94940A5F
:1012500008951F93FC0199278827BC01E8941191F8
:101260001032E9F3193010F01E30C8F31B3251F080
:101270001D3249F4689406C00E945009610F711D27
:10128000811D911D119110531A30B0F33EF49095C9
:101290008095709561957F4F8F4F9F4F1F91089557
:1012A000592F482F372F262F660F771F881F991F1A
:1012B000660F771F881F991F620F731F841F951F6A
:1012C000660F771F881F991F089591110C946E095E
:1012D000803219F089508550C8F7089599278827DA
:1012E00008952F923F924F925F926F927F928F92CA
:1012F0009F92AF92BF92CF92DF92EF92FF920F93A5
:101300001F93CF93DF93CDB7DEB7CA1BDB0B0FB6AE
:10131000F894DEBF0FBECDBF09942A88398848886B
:101320005F846E847D848C849B84AA84B984C88401
:10133000DF80EE80FD800C811B81AA81B981CE0FF8
:10134000D11D0FB6F894DEBF0FBECDBFED010895DD
:1013500097FB072E16F4009407D077FD09D00E9462
:10136000DE0907FC05D03EF4909581959F4F0895C6
:10137000709561957F4F0895A1E21A2EAA1BBB1BA1
:10138000FD010DC0AA1FBB1FEE1FFF1FA217B30751
:10139000E407F50720F0A21BB30BE40BF50B661F67
:1013A000771F881F991F1A9469F76095709580952B
:1013B00090959B01AC01BD01CF010895AA1BBB1BF9
:1013C00051E107C0AA1FBB1FA617B70710F0A61B45
:1013D000B70B881F991F5A95A9F780959095BC0166
:1013E000CD010895EE0FFF1F0590F491E02D0994B3
:1013F0000F931F93CF93DF938230910510F482E017
:1014000090E0E0911C07F0911D0730E020E0B0E093
:10141000A0E0309799F42115310509F44AC0281B42
:10142000390B24303105D8F58A819B81611571050E
:1014300089F1FB0193838283FE0111C040815181B8
:101440000281138148175907E0F04817590799F4AA
:10145000109761F012960C93129713961C93329684
:10146000CF01DF91CF911F910F91089500931C0739
:1014700010931D07F4CF2115310551F04217530782
:1014800038F0A901DB019A01BD01DF01F801C1CFEC
:10149000EF01F9CF90931D0780931C07CDCFFE017C
:1014A000E20FF31F819391932250310939832883EE
:1014B000D7CF20911A0730911B07232B41F420919D
:1014C00003013091040130931B0720931A072091E8
:1014D0000101309102012115310541F42DB73EB7CC
:1014E0004091050150910601241B350BE0911A072C
:1014F000F0911B07E217F307A0F42E1B3F0B2817F0
:10150000390778F0AC014E5F5F4F2417350748F07C
:101510004E0F5F1F50931B0740931A0781939193BF
:101520009FCFF0E0E0E09CCFCF93DF930097E9F00E
:10153000FC01329713821282A0911C07B0911D0703
:10154000ED0130E020E01097A1F420813181820F7D
:10155000931F20911A0730911B072817390709F0AC
:1015600061C0F0931B07E0931A07DF91CF910895B4
:10157000EA01CE17DF07E8F54A815B819E0141153C
:101580005105B1F7E901FB83EA8349915991C40FF1
:10159000D51FEC17FD0761F4808191810296840FBD
:1015A000951FE90199838883828193819B838A8334
:1015B000F0E0E0E012968D919C9113970097B9F5B9
:1015C0002D913C911197CD010296820F931F20918E
:1015D0001A0730911B072817390739F6309751F54C
:1015E00010921D0710921C07B0931B07A0931A07B7
:1015F000BCCFD383C28340815181840F951FC8170C
:10160000D90761F44E5F5F4F88819981480F591F58
:10161000518340838A819B81938382832115310585
:1016200009F0B0CFF0931D07E0931C079ECFFD019A
:10163000DC01C0CF13821282D7CFB0E0A0E0E3E29A
:10164000FBE00C9473098C01009751F4CB010E94CC
:10165000F8098C01C801CDB7DEB7E0E10C948F0921
:10166000FC01E60FF71F9C0122503109E217F30736
:1016700008F49DC0D901CD91DC911197C617D70709
:1016800098F0C530D10530F3CE010497861797073F
:1016900008F3C61BD70B2297C193D1936D937C930C
:1016A000CF010E94940AD6CF5B01AC1ABD0A4C014F
:1016B0008C0E9D1EA0911C07B0911D07512C412C32
:1016C000F12CE12C109731F580911A0790911B07AE
:1016D0008815990509F05CC04616570608F058C0F1
:1016E0008091010190910201009741F48DB79EB75E
:1016F0004091050150910601841B950BE817F907ED
:1017000008F055C0F0931B07E0931A07F9017183A5
:101710006083A0CF8D919C91119712966C90129737
:1017200013967C901397A815B90559F56C0142E002
:10173000C40ED11CCA14DB0420F1AC014A195B09A8
:10174000DA011296159780F062827382518340838A
:10175000D9016D937C93E114F10471F0D7011396D4
:10176000FC93EE93129776CF22968C0F9D1FF90172
:1017700091838083F301EFCFF0931D07E0931C0763
:1017800069CF4816590608F42C017D01D3019ACF80
:10179000CB010E94F8097C01009749F0AE01B80125
:1017A0000E94E20BC8010E94940A870153CF10E007
:1017B00000E050CF9111089581548A5108F4805E61
:1017C000855A0895FB01DC0102C001900D92415041
:1017D0005040D8F70895FB01DC0101900D920020E4
:1017E000E1F7089510E0CDE5D0E004C0FE010E94CD
:0E17F000F2092196CE35D107C9F7F894FFCF44
:1017FE000100001E0780000300040005000600071C
:10180E0000080009000A00FC60DAF266B6BEE0FECF
:10181E00F60B000C000E000F00000000004701A7A1
:10182E0000D40094010501E300F7000D0A004F4EAD
:10183E00004F464600596573004E6F003D3D3D20FA
:10184E00505241435449434520353A20375345477A
:10185E002D4D5058342D434320444953504C41593B
:10186E002054455354203D3D3D00342D4469676955
:10187E007420372D5365676D656E742044697370DF
:10188E006C617920436F6E74726F6C6C65720020A0
:10189E0020456E746572206E756D626572202830FB
:1018AE002D3939393929202D20446973706C6179AD
:1018BE0020746865206E756D626572002020276346
:1018CE0027202D20436C65617220646973706C61F2
:1018DE0079002020277A27202D20546F67676C65AA
:1018EE00206C656164696E67207A65726F73002083
:1018FE0020276427202D20546F67676C6520646550
:10190E0063696D616C20706F696E7473002020279F
:10191E006227202D20546F67676C65206469737091
:10192E006C6179206F6E2F6F6666002020277427FA
:10193E00202D205465737420616C6C206469676976
:10194E007473002020277327202D2053686F772073
:10195E00737461747573002020276827202D20531F
:10196E00686F772068656C7000456E7465722061D3
:10197E00206E756D62657220746F20646973706C71
:10198E0061792028302D39393939293A00496E6963
:10199E007469616C20646973706C61793A203132BC
:1019AE00333400446973706C617920636C656172C5
:1019BE006564004C656164696E67207A65726F7349
:1019CE003A2000426C696E6B696E672064656369CC
:1019DE006D616C20706F696E74733A200044697388
:1019EE00706C61793A200054657374696E6720617A
:1019FE006C6C2064696769747320616E6420736512
:101A0E00676D656E74732E2E2E0054657374696E39
:101A1E00672064696769742000202053686F7769B6
:101A2E006E673A200054657374696E6720616C6C42
:101A3E00207365676D656E747320283838383829C1
:101A4E002E2E2E005465737420636F6D706C65744A
:101A5E00652E20526573756D696E67206E6F726D9F
:101A6E00616C206F7065726174696F6E2E000A3D35
:101A7E003D3D20444953504C4159205354415455F7
:101A8E0053203D3D3D0043757272656E74204E7558
:101A9E006D6265723A2000446973706C61792045FD
:101AAE006E61626C65643A20004C656164696E67B4
:101ABE00205A65726F733A2000426C696E6B696EC4
:101ACE006720446563696D616C20506F696E747335
:101ADE003A20004272696768746E657373204C65B4
:101AEE0076656C3A20002F3130004D756C7469703C
:101AFE006C6578696E6720526174653A20002048E3
:101B0E007A0043757272656E742044696769743A1F
:101B1E002000557074696D653A2000207365636FFF
:101B2E006E6473000A3D3D3D2048454C50203D3DBE
:101B3E003D00417661696C61626C6520436F6D6D2D
:101B4E00616E64733A002020302D393939392020E6
:101B5E0020202D20446973706C6179206E756D6242
:101B6E006572002020632020202020202020202DA0
:101B7E0020436C65617220646973706C61792028F2
:101B8E0073686F772030290020207A2020202020B3
:101B9E00202020202D20546F67676C65206C6561B6
:101BAE0064696E67207A65726F730020206420204E
:101BBE00202020202020202D20546F67676C652068
:101BCE00646563696D616C20706F696E7420626C00
:101BDE00696E6B696E670020206220202020202015
:101BEE002020202D20546F67676C65206469737008
:101BFE006C6179206F6E2F6F666600202074202036
:101C0E00202020202020202D205465737420616C0C
:101C1E006C2064696769747320616E6420736567F4
:101C2E006D656E74730020207320202020202020EC
:101C3E0020202D2053686F772063757272656E7445
:101C4E00207374617475730020206820202020207A
:101C5E00202020202D2053686F7720746869732010
:101C6E0068656C70004578616D706C65733A002024
:101C7E0020313233342020202020202D2053686F35
:101C8E00777320273132333427002020343220203E
:101C9E002020202020202D2053686F7773202720AE
:101CAE0020343227206F72202730303432272077AD
:101CBE00697468206C656164696E67207A65726FFD
:101CCE0073002020302020202020202020202D20B6
:101CDE0053686F777320272020203027206F7220C3
:101CEE002730303030272077697468206C65616446
:101CFE00696E67207A65726F7300556E6B6E6F77C3
:101D0E006E20636F6D6D616E642E20547970652048
:101D1E0027682720666F722068656C702E004469F4
:101D2E0073706C6179696E673A2000496E76616CEA
:101D3E006964206E756D6265722E20456E746572D3
:101D4E0020302D39393939206F7220636F6D6D61F6
:041D5E006E642E0081
:00000001FF
